:020000022000DC
:1060000000000120756302005D6302005F6302000F
:106010006163020063630200656302000000000028
:1060200000000000000000000000000067630200A4
:1060300069630200000000006B6302006D630200F0
:10604000758502006F630200BD8902006F63020064
:106050006F6302006F630200458802006F630200F5
:106060006F6302006F6302006F6302006F630200E0
:106070006F6302006F6302006F6302006F630200D0
:106080006F630200F97002006F6302006F63020029
:10609000957102006F63020071B402006F63020029
:1060A0006F6302006F6302006F6302006F630200A0
:1060B0006F6302006F630200000000000000000038
:1060C0006F6302006F6302006F6302006F63020080
:1060D0002D9302006F6302006F6302000000000056
:1060E00000000000000000000000000000000000B0
:1060F00000000000000000000000000000000000A0
:10610000000000000000000000000000000000008F
:10611000000000000000000000000000000000007F
:10612000000000000000000000000000000000006F
:10613000000000000000000000000000000000005F
:10614000000000000000000000000000000000004F
:10615000000000000000000000000000000000003F
:10616000000000000000000000000000000000002F
:10617000000000000000000000000000000000001F
:10618000000000000000000000000000000000000F
:1061900000000000000000000000000000000000FF
:1061A00000000000000000000000000000000000EF
:1061B00000000000000000000000000000000000DF
:1061C00000000000000000000000000000000000CF
:1061D00000000000000000000000000000000000BF
:1061E00000000000000000000000000000000000AF
:1061F000000000000000000000000000000000009F
:10620000354936480A1A02D0072291438D4634494F
:1062100034480A1A06D00722914381F309880222E2
:1062200082F3148830483149314A00F044F831484B
:106230003149324A00F03FF831483249324A00F0E1
:106240003AF832483249334A00F035F83248334997
:10625000334A00F030F833483349344A00F02BF821
:1062600033483449344A00F026F83448344900228F
:1062700000F02CF833483449002200F027F8334866
:106280003349091A082902DB002202604160314AC1
:1062900090471F481F49884205D00268043003B464
:1062A000904703BCF7E700208646EC46002000211B
:1062B000294A9047FEE7884207D0521A05D0037852
:1062C00001300B700131013AF9D17047884202D098
:1062D00002700130FAE770470000012000E0002062
:1062E0000000012000000120B0C90200982A00200F
:1062F000002B0020D4630200D463020096BA02008F
:10630000B0C90200982A0020982A002094BB0200FD
:1063100094BB020094BB020094BB020094BB020039
:1063200094BB020094BB020094BB0200AEC9020001
:1063300018CA0200002B0020002B0020002B002098
:10634000843D0020843D0020843D0020843D0020C9
:10635000845D00209D630200899B0200FEE7FEE74A
:10636000FEE7FEE7FEE7FEE7FEE7FEE7FEE7FEE705
:10637000704700BF1048804710484FF0070188431E
:1063800085460F4880470F48016841F4700101605D
:10639000BFF34F8FBFF36F8FFFF732BF0A480B4930
:1063A0000B4A884207D0521A05D0037801300B708F
:1063B0000131013AF9D170477163020000000120F8
:1063C0001180020088ED00E094BB0200982A0020B2
:0463D000982A0020E7
:1063D4007047000007B5044B0093044A402300F0C3
:1063E40032F803B05DF804FBF5630200012B0020D2
:1063F4002DE9F84388461446B2B10F4B0F4E0325DE
:10640400002743F00109224608EB0701002003F0AE
:106414004BFD0744241A48B933782BB14FF47A4022
:10642400C847013D02D13570BDE8F88301233370BC
:10643400002CE8D1F8E700BFA0BB0200002B00202D
:10644400704703F061BDF0B595B01D461646084689
:106454000C4601F0F5FC1A9B0D93CDE90865002567
:106464002B46082205A920460A958DF82C500C9538
:1064740001F002FD079B0293069B03939DF81430E1
:106484008DF8115003F00302012A1DD1BDF8142028
:10649400059DC3F3C203C2F383168DF81030B20016
:1064A40008230EA9204601F0E7FCC5F3952508ABA7
:1064B4000093324602AB0EA9284600F05BFB20464F
:1064C40001F0C2FC15B0F0BD022AF8D1BDF8165097
:1064D400C3F3C203C5F389158DF810300827082DBE
:1064E4002E4628BF08263B4632460EA9204601F018
:1064F400C3FCAD1B08AB02AA31460EA8374400F01A
:106504009DFB002DEBD1DAE708B5FFF79AFF0448AD
:10651400042100F099FA034B01225A7108BD00BF0F
:1065240084BB0200982A0020037813F0040216D0DA
:1065340003F00303012B03D0022B09D00120704781
:106544000A6800880232C0F3831002440A60F5E747
:106554000B684288023303EB92130B60EEE710469C
:10656400704700002DE9F04FDFF830A187B00F46E7
:1065740000230446861C0DF1070015468DF80730EC
:1065840001F008F9DAF800103960DAE9013213444D
:1065940001335B1A0AF21C470AF583690AF21448AC
:1065A400B3421CD30020002D73D004F00F039B01D1
:1065B40043F0050363F30F00DAF80020DAF808303B
:1065C4001340033332444AF823009DF80700CAF805
:1065D400002001F003F9012007B0BDE8F08F01218C
:1065E400384601F05CF9484601F071F9404601F083
:1065F4006EF9DAF80400DAF808B0029000EA0B0049
:1066040003300AEB800002A9FFF78EFF029B50BB08
:106614000BEA03020AEB820203F1020CD268039232
:10662400013303EA0B0B0AEB8B0B02F00302012A82
:10663400DBF80C10CDF808C023D0022A16D083460C
:10664400404601F047F910B1029BCAF8043059469C
:10665400384601F024F9DAE901231344DAF800207A
:1066640001339B1A9CE70BEA0300C9E7BDF80E301F
:10667400C3F3891303334FEA114B0CEB93030293D7
:10668400DEE7BDF80C30C3F383134FEA114B6344C8
:10669400F5E7A40544F006008EE700BF142C0020A3
:1066A4000B4B0C48FF2210B59A600022C3F8182443
:1066B400C3E90022C3F8142483F8202401F079FBF1
:1066C400044610B9044801F021FC204610BD00BF67
:1066D400142C002000BB0200DCBB020030B50A4CC5
:1066E40071B10A4A0A49121BD20800239A4201D105
:1066F400002030BD31F82350854202D00133F5E744
:10670400034654F83300F4E714BB020084BB0200D0
:10671400982A0020094B013903EBC000032909D84A
:10672400DFE801F00A02040604207047007970478C
:1067340040797047002070470220704714BB020064
:10674400034BD3E90030C31A58425841704700BF85
:10675400142C00202DE9F04387B0FFF7F1FF064623
:10676400002840F0FE80804CC4F81804BFF34F8F1B
:106774006368A56802932B40033304EB830002A9EA
:10678400FFF7D2FE029B18B1D4F81824002A62D075
:1067940005EA0302991C013304EB82022B4004EB4B
:1067A4008303D268DB68049302F00303022B039291
:1067B400029163D1BDF80E306C48C3F38917502F92
:1067C400B84628BF4FF0500808F1080168F38F134A
:1067D400C1F30901ADF80E3001F003FB06460028B1
:1067E40000F0AA8001F02CFB0023082203A9304604
:1067F40001F038FB029925EA01020132B8EB820F5D
:106804004FEA820333D95FFA88F863B32940DDB2D3
:10681400A8EB050803315FFA88F9A846544D04EB48
:10682400810108234246304601F01CFB3DB108F1CA
:106834000803DBB24A462946304601F013FB029BAB
:10684400033703EB97070297D4F81834002B4BD186
:10685400D4F810545BE022689A428CD862603046C7
:1068640007B0BDE8F08342491D469946D9E729405F
:1068740003310823424604EB8101DDE7012B5BD1A0
:10688400BDF80C303948C3F38311062928BF06210B
:1068940061F38913023101F00F018900ADF80C3066
:1068A40001F09FFA0646002846D001F0C9FA0023F9
:1068B400082203A9304601F0D5FA0027BDF80C20C0
:1068C400C2F38312BB00974203F10803BCD20299BE
:1068D4004A1C29400331029204EB81010422304610
:1068E40001F0C0FA0137E9E7304601F0ADFAFFF7ED
:1068F40027FF80F00100C6B2B1E7EB685B7923B1F2
:106904002B6831461B6828469847EB681D68002DA4
:10691400F3D1304601F098FA0DF107008DF80750D5
:1069240000F038FFD4F818340BB9029B63609DF86B
:10693400070000F053FFDAE7D4F8104454B90D4BC4
:106944000D480E49C01AC008000440F0020000F0CF
:1069540063F8CCE7236820469B689847E3681C6883
:10696400ECE700267BE700BF142C002000BB0200EC
:10697400202C002014BB020044BB0200C4BB020054
:106984002DE9F74F224E04460F46924601A90122F3
:106994001846D6F808909B46FFF7E4FD20B3019D06
:1069A4004FF00008AA1CD84508EB020126D119486B
:1069B400002100F045FF80F31000000440EA144079
:1069C400E4006B1C04F0380403EA090305EA090532
:1069D40044F0010406EB8303033544EA881444EAD3
:1069E4008724D86046F8254096F820341BB1FFF779
:1069F400B1FE0028FBD103B0BDE8F08F09EA010124
:106A040006EB81015AF82830CB6008F10108CAE787
:106A1400142C00203030002000231A46FFF7B0BFAA
:106A240007B50123019201AAFFF7AAFF03B05DF89D
:106A340004FB07B5CDE9002302236A46FFF7A0FF54
:106A440003B05DF804FB000030B50F4CD4F81024FB
:106A540003460020114631B9D96808714AB9C4F80F
:106A640010340A6030BDC9680D79854206D00968C2
:106A7400F1E7D26814680C601360F3E701300A2868
:106A8400E8D14FF0FF30EDE7142C002038B5084B67
:106A94000125D3F8104483F8205404B938BDE368C1
:106AA4005D71236820465B689847E3681C68F4E7D7
:106AB400142C002030B5C38885B004460D4633B18C
:106AC400144A00921449154A284600F066FF217AB8
:106AD40005291DD0637A4BB1A088FFF71BFE104B2C
:106AE400104953F82020284600F057FF227A0E4B15
:106AF400A08853F8222003920021FFF7EFFD039AA8
:106B04000A490346284605B0BDE8304000F045BFB9
:106B140005B030BD08BC0200F0BB0200E8BB0200B7
:106B240074BC020064C2020098BC02000DBC0200E6
:106B340007B503460846197A052911D05B7A2BB1AB
:106B4400094A0A49019000F028FF01980849019078
:106B540000F023FF019803B05DF804EB00F012BFCE
:106B6400002AF8D0F2E700BF08BC020064C20200A9
:106B740005BC02002DE9F04385B01F460C9D00239F
:106B840095F80C902B7306460C46904629463846D9
:106B9400FFF790FFB8F1060F09D8DFE808F00412F8
:106BA400181F283340003146284600F0F6FE002224
:106BB40029463846FFF7BCFF85F80C9005B0BDE8C0
:106BC400F08322683146284600F0E7FEEFE7D4E977
:106BD40000233146284600F0E0FEE8E7A36800936E
:106BE4003146D4E90023284600F0D7FEDFE7E36806
:106BF4000193A36800933146D4E90023284600F0AA
:106C0400CCFED4E723690293E3680193A36800935D
:106C14003146D4E90023284600F0BFFEC7E7636984
:106C2400039323690293E3680193A36800933146B5
:106C3400D4E90023284600F0B0FEB8E708292DE97E
:106C4400F74F80460E4617461C463DD800251B7B51
:106C54002573214610460193FFF72CFFDFF88CA023
:106C6400DFF88CB0AE4232D918F8052059462046D8
:106C740000F093FE0135082DF4D11B49DFF874A010
:106C8400DFF874B0204600F088FE4FF000094E454E
:106C940024D918F809507E2D1ED8284604F00EFE7B
:106CA400002814BF2A462E225946204600F075FEBD
:106CB40009F10109B9F1080FE9D101222146384649
:106CC400FFF736FF019B237303B0BDE8F08F5146F5
:106CD400204600F062FECDE72E22E5E7514620462D
:106CE40000F05BFEE4E700BF21BC02001DBC020013
:106CF40017BC02001FBC020023BC02002DE9F84FA0
:106D04002F4F304E4FF000082F4B1B785FFA88F559
:106D1400AB4201D8BDE8F88FD7F8009019F83500D8
:106D24000124A0F12002C0F1200304FA02F224FAA3
:106D340003F31343D6E9001204FA00FC01EA0C0B36
:106D440002EA030E5BEA0E0E09EBC50A35D021EA0E
:106D54000C0122EA0303C6E9001301F067FD0246B1
:106D640019F83500194DA0F12003C0F1200124FACF
:106D740001F104FA03F30B43D5E900C1C0F1200586
:106D84000B40A0F1200122FA05F5844002FA01F13A
:106D9400294304EA0C0402FA00F58B4208BFAC4212
:106DA4000BD1DAF8043043B19AF801104C1E614259
:106DB40061418D1A69426941984708F10108A3E7C6
:106DC4000831002000310020D0300020F8300020AD
:106DD400F8B507461E4800F0C1FBB8BB01251D4E9F
:106DE400A7F12004C7F1200325FA03F305FA04F4FC
:106DF4001C43D6E90023BD4002EA050003EA04016E
:106E040001431DD1384601F011FD134BD3E90012A3
:106E140088B129432243C3E90012D6E900232A4357
:106E24002343C6E900230D4B094819680022BDE835
:106E3400F84000F04BBB21EA050122EA0402EAE72C
:106E440022EA050223EA0403C6E90023F8BD00BFD1
:106E5400D830002000310020F8300020D430002049
:106E6400042A2DE9F34105460C4616463BD901F0A8
:106E740015FCE8B11D4B1E491D601E4BDFF88880D0
:106E84001C701D4B00221E600023C1E900231B4916
:106E9400C1E90023013CE4B200260327FF2C0ED1F4
:106EA400174A1848002102B0BDE8F04100F0FCBACE
:106EB40001F0C4FB0028DDD002B0BDE8F08105EB91
:106EC400C40315F834009B788DF80660424601A986
:106ED4008DF804708DF8053001F0EAFB013CE4B252
:106EE4000028DBD0E8E70720E6E700BF08310020F0
:106EF400F8300020D0300020D430002000310020B1
:106F0400016D0200ACBC0200D56D020070B5084DE5
:106F1400084E00242B789C4201D3002070BD3368B6
:106F2400012113F8340001F03BFC0134F2E700BF07
:106F3400D0300020083100201FB50021039001AAA1
:106F440044F20100CDE9011100F004F805B05DF848
:106F540004FB000038B572B6FFF798FDFFF7FAFBA3
:106F64000028FBD1104B114C114D1249E41AE408CE
:106F7400240444F00100FFF74FFDD5F8F030DB079F
:106F840000D500BE0C4944F00200FFF745FDBFF3F5
:106F94004F8FEA68094B02F4E0621343EB60BFF3DE
:106FA4004F8F00BFFDE700BF14BB020044BB0200CB
:106FB40000ED00E0B0BC0200BCBC02000400FA0515
:106FC40049B152B1531E1A4007D1826001608380D7
:106FD400C260104670470E2070470920704710B5F4
:106FE4008468C2688388121B934208D3C268134022
:106FF4000268D154C3680133C360002010BD04206B
:10700400FCE78268C3689A420AD082688388134086
:107014000268D35C0B70836801338360002070477F
:1070240005207047094B5A7899780132D2B29142BF
:1070340008BF0022197891421FBF027058781822A5
:1070440002FB003014BF0430002070470C310020D4
:1070540073B5054600240DF107000E468DF8074070
:1070640000F098FB0DF10600FFF7DCFF90B106700D
:10707400094B9DF8062045605A709DF8070000F002
:10708400ADFB24B9054B4FF48012C3F80021204610
:1070940002B070BD0424F0E70C31002000E100E0F0
:1070A400024B4FF43C6043F001031847D0BC02008C
:1070B40038B50C4B0C4C4FF40032C3F8802001253A
:1070C4004FF48033C4F84833C4F808336560FFF7DD
:1070D400E7FF064BA56000241C60FFF7E1FF044BAB
:1070E4001C7038BD00E100E000100140283200208F
:1070F40019320020F8B51F4B1F491B680025C1F841
:107104004051C1F84451C1F84851C1F84C51C1F83B
:107114000051C1F804514BB3D1F80445174909682B
:10712400641A24F07F442F461A68A24209D8A41A8C
:1071340015441A7CDE691AB1D3E905201F749047FF
:10714400AEB90F4A0F4B11781B788B4205D101332E
:10715400DBB2022B08BF0023137012780A4B43F8EA
:1071640022500A4B4FF48012C3F80021F8BD334675
:10717400DAE700BF2C320020001001402832002042
:1071840025320020243200201C32002000E100E0DF
:107194002DE9F04FA14AA24913780978A14D9942EB
:1071A40085B03CD00133DBB2022B08BF002313703F
:1071B4009D4912789D4B0F6853F822003B1823F029
:1071C4007F4300220B602B6816461446944613B97D
:1071D40042B12B6006E0196881420ED902B12B60DE
:1071E400091A196001272B68DFF848A201934FF0B0
:1071F4000008BEB9DFF844B260E0401A0C44D96814
:10720400D3F81CE0C3F800C031B13A1922F07F4230
:10721400C3E90121DE611E4673460122D7E7002639
:107224003746E0E73446F6697F4B60681B68DFF851
:1072340010C2A168C21A22F07F42624500F2A68001
:107244000A442260012222742A680023C4E901331B
:10725400E361002A40F0A3802C60CAE79BF8021087
:107264005A1CD2B291428BF8002004BF00228BF842
:107274000020182202FB03B32A6819799C680229AA
:1072840075D003297FD0012918D1207CB0B9D3E966
:107294000312A2605A69E2609A69654BA2611A7886
:1072A400002A18BF01466160BEE78C4200F094805A
:1072B4008946C9690029F8D1002323749BF800305A
:1072C4009BF801209A42C9D12B68B8F1000F04D170
:1072D400019A9A4201D1002F43D0002B79D0D3F8E0
:1072E40000A0544D504BD5F804751C68DFF8548148
:1072F4003E1B98F8003026F07F4603369BB94FF4C6
:107304008033C5F84433C5F804334B4B4FF4003293
:107314004FF00109C3F880211A60C5F80090FFF707
:10732400BFFE88F80090B2452CBF5444A41924F041
:107334007F44C5F84045D5F80435DB1B23F07F4373
:10734400E41B033324F07F44A3420AD9D5F804355F
:10735400C5F84035FFF7A4FE374B4FF40032C3F8AD
:107364000021334B00221A7005B0BDE8F08F11469E
:1073740091469FE71174D2690123002AFAD1002BA8
:107384009CD02A609AE700231946F6E71B1A23F0DB
:107394007F438B4234BFCB1A0023236052E721681A
:1073A4001368994213D85B1A1360E26154E7091A0F
:1073B400D8691A4638B1034618688842F7D3401A88
:1073C4001860184613462160E061DC6111E713463A
:1073D400F2E7FFF76DFEC4E74C4511D1D3692B608A
:1073E40073B9DFF844E00120CDE90212CAF80800BD
:1073F400CEF800300E4B1870FFF752FEDDE9021292
:107404000B68C969C9F81C1011B1086803440B6002
:107414002B68934218BF4FF001084DE72432002037
:10742400253200202C320020283200201C3200207B
:10743400183200200010014000E100E00C3100206F
:10744400FEFF7F001932002008B5FFF731FE104B14
:1074540000200B2218809A700E4B18600E4B187087
:107464000E4B18700E4B4FF48012C021C3F88021CC
:1074740083F814131A6002F18042A2F56F22C2F855
:10748400080583F81113074BD2F804251A6008BDC8
:107494000C3100202C320020243200202532002020
:1074A40000E100E028320020074B9B784BB132B159
:1074B40028B10368187C20B959745A6170470720B1
:1074C40070470820704700BF0C3100202DE9F743B6
:1074D400DFF8848098F8023005460E461746ABB3B1
:1074E400A0B3042930D9436983B3437C0024012B1E
:1074F4000DF107000CBF8946A1468DF8074000F046
:1075040049F90DF10600FFF78DFDD8B10123037091
:107514000F4B4560D3F80435C0E90497C0E902363F
:107524009DF8063088F801309DF8070000F056F900
:1075340024B9084B4FF48012C3F80021204603B04D
:10754400BDE8F0830424EFE70724F7E70824F5E710
:107554000010014000E100E00C310020064A92785E
:107564003AB130B1426922B1002202740221FFF71C
:107574006FBD0820704700BF0C3100200648074A41
:1075840003780749D35C012213B1043001F058BEDB
:107594000C3001F03BBC00BFA02A00209432002034
:1075A400583200200648074A03780749D35C012271
:1075B40013B1043001F0FCBD0C3001F0D9BB00BFA5
:1075C400A02A0020943200205932002037B50578D3
:1075D400012D0DD0022D2ED005BB1E491E48FFF7EC
:1075E40010FD002832D103B0BDE83040FFF7DABF08
:1075F40043681A4C19782046FFF7F1FC80B18DF8E6
:1076040000500190164B68461B689847A168E368D0
:10761400A2885B1A9A420AD3FFF7B0FF03B030BDC9
:10762400A268E3689A42F1D08DF80000EAE70D4BB6
:1076340001221A70F2E7C3688DF800500193FFF736
:107644009DFF074B68461B689847E7E703238DF8BF
:107654000030F6E75932002048320020343200204E
:107664003032002044320020F0B51F46234B89B04D
:1076740004461A600D4600293DD08A8820480968CE
:10768400FFF79EFC002834D1AA89A9681D48FFF79A
:1076940097FC00282DD11C4E0FCE6D460FC596E8E1
:1076A4000F0085E80F0063690693237C174A184886
:1076B4008DF81C70003B18BF01238DF81430637CD7
:1076C400002B14BF0E2300238DF81530E3680293BA
:1076D400A36803932368019369466368009300F0E9
:1076E400E1FE30B90B4B18702368013301D0FFF76A
:1076F40045FF09B0F0BD0720FBE700BF3032002092
:107704003432002048320020D8BC0200D175020077
:10771400A02A00204432002070B5084D01460848D4
:107724002E78FFF76EFC044636B100232B70FFF76A
:1077340025FF08B1FFF700FC204670BD443200204D
:107744003432002010B501460E48FFF748FC0446C9
:10775400A8B90D480D4A0378D35C63B1043001F035
:107764001BFD60B90A490748FFF74BFC38B9BDE86F
:107774001040FFF717BF0C3001F0EEFAF1E7204696
:1077840010BD00BF48320020A02A002094320020FF
:107794005932002070B5EFF3108672B60C4A946823
:1077A40001239CB993600B4B0B4DD3F880102940F7
:1077B4001160C3F88050D3F8841051604FF0FF3249
:1077C400C3F88420047006B962B670BD0370FAE78A
:1077D4005C32002000E100E0FC06FFBD084B9A6823
:1077E40010B55AB150B9EFF3108172B6054A1C684E
:1077F40014605C685460986001B962B610BD00BF43
:107804005C32002000E100E001F01F024B0901217D
:10781400914000EB830000F01EB801F01F03012229
:107824009A404B0900EB8300D14300F02CB84B097C
:1078340001F01F0150F82300C84000F00100704718
:1078440010B5034653E8000F0A4643E8002494F0B9
:10785400000FF7D110BD10B5034653E8002F42EADC
:10786400010043E8000494F0000FF6D110BD10B5F8
:10787400034653E8000F00EA010243E8002494F0B1
:10788400000FF6D110BD10B5034653E8002F02EAED
:10789400010043E8000494F0000FF6D110BD10B5C8
:1078A400034653E8002F02EB010043E8000494F080
:1078B400000FF6D110BD10B5034653E8002FA2EB1C
:1078C400010043E8000494F0000FF6D110BD01213B
:1078D400FFF7C1BF0021FFF7CABF10B590B1D0E9CF
:1078E400012301689B1ADBB20A60013BDBB2FF2B68
:1078F400026802D10020107110BD11684C1C146084
:107904000B70F2E70E20F7E737B5054600240DF1BA
:1079140007008DF80740FFF73DFF2A686B68116880
:1079240099420ED9481E106011F8013CEC68298A6E
:1079340001FB0344AB6811791B1ADBB2994238BFCF
:1079440013719DF80700FFF749FF204603B030BDCF
:1079540037B5054600230DF107000C468DF80730B6
:10796400FFF718FF2A681368591C1160E968641A44
:10797400298AB4FBF1F41C709DF80700FFF72EFF71
:1079840003B030BD826810B504462AB1436901686A
:10799400006998470023A36010BD0EB403B5039992
:1079A40021B104AB01AA019300F076F802B05DF8AE
:1079B40004EB03B070470A2938B504460D4602D1DA
:1079C4000D21FFF7F8FFA3682268591CA160D55464
:1079D400D4E901329A4204D32046BDE83840FFF787
:1079E400D1BF38BD2DE9F84F9846DDE90A43154665
:1079F40082460F460A464FF00109AA420FD2C145FA
:107A040038BFC14613F0010B01D16CB90024012623
:107A1400B8F1010F1BD908F1FF386E43F8E709F1FB
:107A24000109B2FBF5F2E8E79B070ED5B8F1000FA8
:107A34000CBF30262026A145E9D2013C31465046F0
:107A4400FFF7B9FF002CF6D1E0E72026F3E7B7FBF8
:107A5400F6F39D42E1D9DFF83C80B7FBF6F35046DC
:107A640018F8031006FB1377FFF7A5FF3346AB4264
:107A7400B6FBF5F6F1D2BBF1000F02D00CB1A14573
:107A840001D3BDE8F88F20215046013CFFF793FF56
:107A9400F4E700BFF8BC02002DE9F74F054617468E
:107AA4008846002900F03E8118F8011B49B92B7B58
:107AB400002B00F03781284603B0BDE8F04FFFF7F4
:107AC40061BF252940F0B780002698F800302D2B9F
:107AD400424608F1010823D0302B24D02B2B25D08B
:107AE40000242A2B02F1010123D13B681A1D1B68D3
:107AF4003A601C440A4613782E2B26D101324FF0EB
:107B0400000A104610F8011BA1F1300CBCF1090F5A
:107B14001DD80A2303FB0A13A3F1300A0246F0E737
:107B240046F00106D1E746F00206CEE746F0040629
:107B3400CBE711F8013CA3F130000928DBD80A2275
:107B440002FB0434303C0A46CBE74FF0000A12F83B
:107B5400011B01F0FB0068289046F8D0782909D869
:107B64006F290CD8632962D022D8252963D05829DB
:107B740000F0888098F80030002B95D197E7703991
:107B84000829F7D801A353F821F000BF037D0200B0
:107B9400797B0200797B0200997C0200797B0200E8
:107BA400777C0200797B0200797B0200897C0200E9
:107BB400642901D06929DDD13A68D2F80090111DF9
:107BC40089EAE9723960A2EBE9724FF0010B092AE4
:107BD40035DCD34538BFD3462CB1B9F1000F01DBF6
:107BE400720700D5013CB30702D5BAF1000F03D0E8
:107BF400F00701D44CBB0024B9F1000F2DDAC9F110
:107C040000092D212846FFF7D6FE06F00302022ABA
:107C140004D1BAF1000F01D11CBB0024CDE9004608
:107C240053460A2249462846FFF7DCFEA2E73B6892
:107C34001A1D19783A602846FFF7BDFE9AE70A2311
:107C44000BF1010BB2FBF3F2C1E7A345D4D220211F
:107C54002846013CFFF7AFFECCE77107D5D52B21B1
:107C6400D0E7A345DAD230212846013CFFF7A3FE32
:107C7400D2E73968CDE900460A1D3A6053460A2224
:107C84000968D0E739680A1D3A60CDE900465346D1
:107C94001022F5E73B681A1D3A6016F00106D3F886
:107CA400009024D1B9F1000F03D0484603F0BFFE81
:107CB4000646B4421DD809F1FF3919F8011F0029FD
:107CC4003FF458AF2846FFF776FEF6E7284601361C
:107CD400FFF771FE19F806100029F7D1A642BFF488
:107CE40049AF20212846013CFFF765FEF6E7002650
:107CF400F0E720212846013CFFF75DFED9E73B6809
:107D04001A1D3A60302128461C68FFF754FE78217A
:107D14002846FFF750FE00220823CDE90032214611
:107D2400102280E703B0BDE8F08F00BF2DE9F84FC3
:107D3400B0F806A04579D2F800B09DF828900AFB67
:107D440005F5043D88460BEB0301A94203F1040445
:107D540088BFA5EB030BB4FBFAF607460AFB1644EF
:107D6400C2F800B04EB9AAEB04055D4528BF5D46D4
:107D7400BBF1000F04D1BDE8F88F3F68013EF1E785
:107D8400043408EB06003C442A46B9F1000F0DD038
:107D94002146ABEB050B03F0CCFDDA452E443F68DE
:107DA40055464FF0000428BF5D46E1E701462046F2
:107DB400EFE7FFF792BDF8B546790146721E054616
:107DC400002393422D6803D30024A64202D8F8BDB1
:107DD4000133F6E70F682846FFF7BAFD0134394648
:107DE400F3E72DE9F843068ACD1C0746FFF78CFD1F
:107DF400043E35440446B5FBF6F5F0B14FF4807308
:107E0400EDB28380C680013D076081464FF00008D3
:107E1400A84512D23846FFF777FD064648B1637984
:107E24000133637108F10108C9F800000760814655
:107E3400EEE72046FFF7BFFF34462046BDE8F8834F
:107E440001210430FFF72BBD10B501210446043095
:107E5400FFF731FDC0B220B92046BDE81040FFF75E
:107E6400AABF10BD1FB503920022009203AAFFF718
:107E74005DFF05B05DF804FB1FB50392012200927B
:107E840003AAFFF753FF05B05DF804FB41DF704719
:107E9400064B10B500241C70054B1C60BFF35F8FAC
:107EA4000449054800F03BF8204610BD703200201C
:107EB4007432002014BD02006832002007B500238C
:107EC4000DF107008DF80730FFF764FCF1EE103A6E
:107ED40023F09F03E1EE103ABFF35F8F0A4B402279
:107EE400C3F884219DF80700FFF778FC03F0A4FA97
:107EF40020B103B05DF804EBFFF7C8BF20BF40BF5B
:107F040020BF03B05DF804FB00E100E083680022B9
:107F14005A60C3E904229A60DA601A6070470B68F9
:107F24004A684360934208BF0023016008BF43606E
:107F34007047436843B10268916852680B449342A6
:107F4400436004BF002343607047000010B50D492F
:107F5400A1F59472914201D800200FE08C1AE30F2E
:107F640003EBE4035B1002EBC30452F833308342A7
:107F740005D802D204F10802ECE7606810BD21467E
:107F8400E8E700BF18C2020008B5FFF7DFFF024BA5
:107F9400002808BF184608BDDAC0020010B5044620
:107FA400C0B2FFF7CFFB204610BD4FF0704393F8EB
:107FB400E02F062A10D1D3F8E42F12070CD1D3F8FE
:107FC400E80F00F0F003302B08D000F0E000A0F13F
:107FD40040035842584170470020704701207047C1
:107FE4004FF0704393F8E02F062A0CD1D3F8E42F16
:107FF400120708D1D3F8E80F00F0F000A0F1300325
:1080040058425841704700207047000008B5FFF7F8
:10801400CCFF40B14FF08053884AD3F82433C3F3E4
:108024000423C2F84035FFF7DBFF10B1844B854AC7
:108034005A67FFF7BAFF48B14FF080534FF08042C0
:10804400D3F84432C3F34233C2F83C35FFF7C8FFD8
:1080540030B17D4AD2F8FC3023F08073C2F8FC3092
:10806400FFF7A3FF40B14FF080430022C3F80C2177
:10807400C3F81021C3F83825FFF7B2FF20B14FF041
:1080840080430322C3F8A025FFF7AAFF60B16F4B1A
:108094000522C3F810260122C3F888260022C3F85B
:1080A40018263F22C3F814264FF0704393F8E02FAC
:1080B400062A50D1D3F8E42F11074CD1D3F8E83F66
:1080C40003F0F003502B46D14FF08052604BD2F8AE
:1080D4000414C3F82015D2F80814C3F82415D2F8F0
:1080E4000C14C3F82815D2F81014C3F82C15D2F8C0
:1080F4001414C3F83015D2F81814C3F83415D2F890
:108104001C14C3F84015D2F82014C3F84415D2F84F
:108114002414C3F84815D2F82814C3F84C15D2F81F
:108124002C14C3F85015D2F83014C3F85415D2F8EF
:108134003414C3F86015D2F83814C3F86415D2F8AF
:108144003C14C3F86815D2F84014C3F86C15D2F87F
:108154004424C3F87025FFF728FF48B14FF080533B
:108164004FF08042D3F8583203F04F03C2F8E43E94
:10817400FFF71BFF48B14FF08043D3F80024D20728
:1081840044BF6FF00102C3F800244FF08053D3F8CA
:108194003021062A0AD1D3F83431062B01BF2D4AE7
:1081A400D2F83C3743F48063C2F83C37264AD2F80D
:1081B400883043F47003C2F88830BFF34F8FBFF3A5
:1081C4006F8F4FF01023D3F80022002A03DBD3F87B
:1081D4000432002B2EDA204B0122C3F80425D3F8F5
:1081E4000024002AFBD04FF010221521C2F80012FF
:1081F400D3F80024002AFBD04FF010231522C3F833
:108204000422154BD3F80024002AFBD00022C3F823
:108214000425D3F80024002AFBD0BFF34F8F0A496A
:108224000E4BCA6802F4E0621343CB60BFF34F8F76
:1082340000BFFDE70A4B0B4A1A6008BD003001403D
:1082440000C007400DF0ADBA00ED00E00050004062
:1082540000C000400010004000E001400400FA05A6
:10826400B42A00200090D003054A4FF0A043105CCC
:10827400D3F8043523FA00F0C04300F0010070473E
:108284001CC20200044B1A5C012393404FF0A0422D
:10829400C2F80C35704700BF1CC20200044B1A5CC4
:1082A400012393404FF0A042C2F80835704700BF45
:1082B4001CC2020008B50020FFF7F0FF0120FFF701
:1082C400EDFF0220FFF7EAFFBDE808400320FFF7B7
:1082D400E5BF08B50020FFF7D5FF0120FFF7D2FF67
:1082E4000220FFF7CFFFBDE808400320FFF7CABF15
:1082F400074A4FF0A041105CD1F8043501228240B6
:1083040022EA03001340C1F80805C1F80C35704790
:108314001CC20200014B185C704700BF18C2020067
:1083240038B5074C051E04F1080318BF1C46236822
:108334002BB11A6822605B6828469847F7E738BD76
:108344008032002020B9054B01225A70FFF7E8BFA4
:10835400012802D1014A9070F8E770477832002072
:1083640020B9034B01225A70FFF7DABF704700BFF0
:108374007832002038B50B4C237883B90A486360FF
:10838400A3602361E36000F0CBF8054603F054F8E2
:1083940008B900F0D1F801232370284638BD85259B
:1083A400FBE700BF783200204983020037B50B4C4D
:1083B40000230DF107008DF80730FFF7EBF9E368B0
:1083C400013BE360E56815B900F0C8F8A5709DF8B5
:1083D4000700FFF703FA03B030BD00BF7832002076
:1083E400012813B508D003281CD018B9114B012259
:1083F400C3F8802002B010BD0F4C00230DF107001C
:108404008DF80730FFF7C6F923780BB9FFF7B2FFF1
:10841400E3689DF807000133E3600123A370FFF7CD
:10842400DDF9E7E700F088F802B0BDE81040FFF797
:10843400BDBF00BF00E100E0783200201FB5037823
:108444008DF800304368019383688DF80830C36861
:10845400054A0393054B684653F8213052F821101E
:10846400984705B05DF804FB8C3200209032002060
:108474001FB503788DF800304368019383688DF845
:108484000830C368054A0393054B684653F8213006
:1084940052F82110984705B05DF804FB8C32002097
:1084A40090320020F0B5194B90F800C091F81DE00F
:1084B40043F82C20164B16460A6943F82C20154B1A
:1084C40003F80CE00C4607460FCC89B06D460FC587
:1084D40094E80F0085E80F00CDF810C0BEF1000F3E
:1084E40009D0002E0C4A694608BF3246381D00F0F8
:1084F40091FD09B0F0BD002E084A694608BF324616
:1085040007F10C0000F06EFBF3E700BF903200208F
:108514008C320020943200204184020075840200D1
:10852400044A137923B901211060918018467047D9
:108534008520704798320020074B1A68D2075FBF26
:10854400C02283F8002301221A604FF080430122E5
:10855400C3F81825704700BF00E100E04FF08043E6
:108564000122DA60D3F81824D203FBD47047000048
:108574004FF0804307B5D3F800217AB10022C3F845
:108584000021D3F800210092009A0122C3F80823A5
:108594000F4B587910B95A711B6898474FF08043B4
:1085A400D3F8042182B10022C3F80421D3F80421B2
:1085B4000192019A0222C3F80823054B1B6801208B
:1085C40003B05DF804EB184703B05DF804FB00BF8B
:1085D4009832002000F1804000F5C040002382B0B2
:1085E400036003680193019B02B07047800000F1AF
:1085F400A040D0F8002722F44032C0F80027D0F879
:10860400003743EA0141C0F800177047C20801234C
:1086140000F0070003FA00F08B5C1843885470479D
:10862400054B4FF0FF32072843F8202084BFC018C1
:1086340080F84820704700BFA032002038B5144DA0
:1086440095F858400CBB2022FF2105F1300003F0BF
:1086540099F9E0B20134FFF7E3FF0C2CF9D10D4B8B
:108664000022C0216A6583F80613402119604FF483
:10867400BE70FFF7AFFF084B4FF00041C3F804137F
:10868400012385F85830104638BD0820FCE700BFA8
:10869400A032002000E100E000600040034B93F8AA
:1086A4005800003818BF0120704700BFA0320020D6
:1086B4002DE9F041DFF8E48008EB0003054693F967
:1086C4003030002B0F4664DA8B78C3F34003002B61
:1086D4000BBF082400240C2108218C4202D1042061
:1086E400BDE8F08158F8240001303DD108EB0501C4
:1086F40066B248F8242081F830601BB908EB040303
:1087040083F84850BB785A070ED4D9072ED5AB004E
:1087140003F1A043D3F8002722F00202C3F8002794
:108724001D492846FFF772FFBB783A7813F002031D
:1087340025D0A40004F1804404F5C0442D02D4F8EB
:10874400103523F4473323F44073C4F8103512046E
:10875400D4F8103505F4F85502F4403215431D439E
:10876400C4F810550020BBE70134B6E77A7805F564
:10877400E0734FF0A041920041F82320D0E7083E77
:1087840048FA86F696F8505045EA821286F8502048
:10879400E8E70820A4E700BFF4320020A03200205C
:1087A40038B5204C251895F93020072A18DD083AE9
:1087B40044FA82F494F850309B09032B0BD14FF008
:1087C400A043D3F81015C14001F001010231BDE806
:1087D4003840FFF70BBF012B0CBF02210321F6E742
:1087E400D3B2072B1DD8930003F1804303F5C04394
:1087F400D3F8100540F00100C3F8100502F1400061
:1088040040B2800080B2FFF7E5FE51B195F93030F7
:1088140054F823302BB1012303FA02F2024BC3F8BC
:10882400042338BDA0320020006000404FF0A04374
:10883400D3F8103523FA00F000F00100704700006F
:108844002DE9F04F87B00024584D03944FF4807203
:10885400012102F1804303F5C04390B21B68012B50
:1088640006D1D5F804330B4202D0FFF7B3FE0C4314
:108874000432B2F5907F4FEA4101EAD14B4BD3F871
:108884007C31012B0AD14FF4BE70FFF7A3FE4FF0E9
:10889400A04344F00044D3F810350393E3B2D3B1BA
:1088A400434F00250126344210D0AB0003F180432E
:1088B40003F5C043D3F81005D3F8101557F8253045
:1088C40023B1C1F30141C0F3042098470135082DB9
:1088D4004FEA4606E7D1002C61DA00224FF0FF335D
:1088E400CDE90423DFF8C880DFF8C89000273E46AE
:1088F4004FF0A04B19F9014B631C45D0C4F3C203DC
:108904000122E5B204F03F0004F0070402FA04F483
:1089140006AA134413F8042C224235D008EB0002B3
:10892400AD0992F9302058F822A0BAF1000F09D10C
:10893400032D29D104A901930090FFF767FEDDE917
:10894400000301E0032DF5D000F5E07113F80C3CB1
:108954005BF821102342C1F3014105D0022913D150
:10896400032D0CD1294604E003290DD1032D06D192
:10897400022100900136FFF739FE0098F6B2BAF1F1
:10898400000F01D02946D0470137042FB2D136B1A8
:108994004FF0A043039AD3F81035934202D107B0A5
:1089A400BDE8F08F0393049B05939DE700600040AE
:1089B400A0320020F0320020014B1B68184700BF92
:1089C400FC3200200E4B984237B50C4602D00020F2
:1089D40003B030BD00230DF107008DF80730FEF71A
:1089E400D9FE084B1D7915B901221C601A719DF836
:1089F4000700FEF7F3FE002DE9D01120E8E700BFE1
:108A040000200040FC3200200023435082B0435831
:108A14000193019B02B070470A4610B54FF48E7162
:108A2400FFF7F2FF136A9168C95C136A013313629A
:108A3400C0F81C1510BD024608B500684FF49271C9
:108A4400FFF7E2FF10684FF48471FFF7DDFF13684E
:108A540001221A6008BD8B690A4610B54FF484716F
:108A640023B9FFF7D1FFD0F8183510BDFFF7CCFFBD
:108A7400536AD168D0F81805C854536A0133536255
:108A8400F3E700001FB501238DF80030044BCDE956
:108A94000110D3E900126846904705B05DF804FB65
:108AA4000433002030B54D4DD5F804339A0585B014
:108AB40051D5D5F82431002B4DD04FF4927128466E
:108AC400FFF7A2FF4FF40173C5F80833444B93F842
:108AD40029200AB901226A60404902228DF8002047
:108AE400D1F88024C1F8802403929A690292DA684A
:108AF40001920022C3E906226846D3E90012904796
:108B04003648D0F81C315BB1354A116A5369994231
:108B14004DD292F82830002B49D11146FFF77CFF43
:108B24002E48D0F84431002B55D04FF4A271FFF7F2
:108B34006BFF2B4B93F829200AB1012202609A693A
:108B4400002A48D0586AD96800229A6105B0BDE865
:108B54003040FFF797BFD5F804335B07D0D5D5F87D
:108B64000831002BCCD01E4C1C482146FFF773FF64
:108B7400636AA2699A42C3D1E369E1684BB1A36114
:108B84002369E3600023606AE3616362FFF77AFFAD
:108B9400B6E794F829300BB901236B600F4B4FF4FF
:108BA4000172C3F808230023606AA361EEE74FF45F
:108BB4008E710A48FFF728FF51690029B0D00023BD
:108BC400029191688DF80030019153616846D2E9B1
:108BD40000139847A4E705B030BD00BF0020004053
:108BE400043300202DE9F843564D90F804802C23DB
:108BF40003FB0853064693F82A300C469146002B93
:108C040040F09B8050490068FFF7DCFE07460028CF
:108C140040F0958022683068511C0BD04FF0A04181
:108C240001239340C1F8083502F5E0734FF0030CBB
:108C340041F823C061684B1C1FBF01F5E0734FF07E
:108C4400A04C4FF0000E4CF823E0A369C0F8243583
:108C540094F814C0637DBCF1010F4CEA0303C0F81F
:108C64006C35C0F81415C0F80C251DD1A268531C2E
:108C74001FBF02F5E0734FF0A0414FF0000C41F824
:108C840023C0E368591C0BD04FF0A04C012199403C
:108C9400CCF8081503F5E0714FF0030E4CF821E011
:108CA400C0F80835C0F810252C2202FB08F2AB18D6
:108CB400C3F804902369AB50B9F1000F2AD04FF4E4
:108CC4008E71247FFFF7A0FE30684FF4A271FFF786
:108CD4009BFE32681D4BC2F80433130B42F3073278
:108CE400002AA8BF02F160404FEA4411BABF1848F5
:108CF40003F00F0400F56140C9B2B4BF015580F818
:108D0400001303F01F03012101FA03F3520911496F
:108D140041F8223033680422C3F800252C2303FBD6
:108D240008530022C3E9062283F829205A6101224C
:108D340083F82A203846BDE8F8830827FAE7112784
:108D4400F8E700BF04330020A98A02008000020073
:108D540014ED00E000E100E00279044B2C2101FB5A
:108D640002335869003818BF0120704704330020CB
:108D74002DE9F84F064689469246FFF7EDFF044673
:108D840000283DD196F804801F4F2C2508FB057B55
:108D94004FF48E71CBF82000CBF814A08BF8280088
:108DA400CBF808903068FFF72FFE3068012383600A
:108DB4005946FFF731FEDBF804305D4613BB3068DB
:108DC4002A6A6B699A4211D33368D3F81C21002AAA
:108DD400FBD00122DA6000202C2303FB0877002358
:108DE4007B61BDE8F88F95F828303BB9D0F81C3189
:108DF400002BF8D05946FFF70FFEE1E70F20EBE711
:108E04001120EEE72046ECE7043300202DE9F0477B
:108E14003A4D07792C2303FB075306465C6824B1BB
:108E240003684FF40170C3F808032C2303FB0753B2
:108E3400986950B1D869002841D024B133684FF4FF
:108E44000172C3F80423112436E09A61D960586290
:108E5400D8612C2303FB075393F829301BB910B9AD
:108E64003046FFF7E8FD4FF02C0808FB075A30683E
:108E7400DAF80430002B37D14FF4A271D046FFF753
:108E8400C3FD3068D0F82491D0F80831D0F84441BB
:108E9400CBB914B9B9F1000FF3D02C2303FB075558
:108EA4000023AB61B9F1000F24D12CBB95F8291034
:108EB40033680122B1B11A602046BDE8F087196118
:108EC400DA610120C5E7B9F1000FE6D1002CE4D145
:108ED4004146FFF7C0FDDAF82430DAF818209A4248
:108EE400CFD8DAE75A60E7E74FF40173C0F80433E8
:108EF4000024E1E70324DFE70F24DDE70433002047
:108F04000023435082B043580193019B02B0704741
:108F14001FB501238DF80030044BCDE90110D3E9CE
:108F240000126846904705B05DF804FB303300201A
:108F34007FB5364AD2F82461002E46D010464FF44D
:108F44009271FFF7DDFF02238DF80030D2F88034F0
:108F5400C2F880340393D2F83C3502932C4BDA6880
:108F640001920022C3E906226846D3E90012904721
:108F74002648D0F8443173B14FF4A271FFF7C0FF13
:108F8400234B9A693AB10022C3E90622D968D0F882
:108F94003C05FFF7BDFF1D48D0F820319BB14FF4CD
:108FA4009071FFF7ADFF1A4B5A6962B1D0F84C15B6
:108FB4000291002299688DF8002001915A61684657
:108FC400D3E90012904704B070BDD2F81031002BE1
:108FD400CED04FF488711046FFF792FF0C4BD2F8B5
:108FE4003C0599698842C3D1DC69D96864B1D2F877
:108FF400005225F02005C2F800521A699C61DA601B
:10900400DE61FFF785FFB3E79C61FAE700200040CB
:10901400303300202DE9F8435A4E90F8048024237D
:1090240003FB0863054693F820300C469146002B59
:1090340040F0A38054490068FFF7C4FC07460028A9
:1090440040F09D8022682868511C0BD04FF0A0414D
:1090540001239340C1F8083502F5E0734FF0030C87
:1090640041F823C061684B1C1FBF01F5E0734FF04A
:10907400A04C4FF0000E4CF823E0A369C0F824354F
:1090840094F814C0637DBCF1010F4CEA0303C0F8EB
:109094006C35C0F80C25C0F814151DD1A268531CFA
:1090A4001FBF02F5E0734FF0A0414FF0000C41F8F0
:1090B40023C0E368591C0BD04FF0A04C0121994008
:1090C400CCF8081503F5E0714FF0030E4CF821E0DD
:1090D400C0F80835C0F81025242202FB08F2B318A2
:1090E400C3F804902369B350B9F1000F34D04FF49E
:1090F4008871227FFFF704FF28684FF49071FFF70F
:10910400FFFE28684FF49271FFF7FAFE28684FF4C7
:10911400A271FFF7F5FE2B681C49C3F80413190B61
:1091240043F30733002BAEBF03F1604001F00F049B
:1091340017484FEA4212A8BF00F56140D2B2B4BF4B
:10914400025580F8002301F01F01012202FA01F107
:109154005B09104A42F823102B680822C3F8002543
:10916400242303FB08660023C6E906337361012345
:1091740086F820303846BDE8F8830827FAE7112737
:10918400F8E700BF30330020358F020010030200DF
:1091940014ED00E000E100E00279044B242101FB1E
:1091A40002335869003818BF01207047303300205B
:1091B40001F06043B3F1005F2DE9F04706468846AD
:1091C400924635D190F80490FFF7E6FF044688BB39
:1091D4001A4F3068242505FB09754FF49071C5F8C2
:1091E40014A0C5F80880FFF78BFE4FF4AC7130680B
:1091F400FFF786FE33686A69A968C3F84415C3F8A3
:10920400482501229A606A68B2B9D3F82021D3F8BC
:1092140058014AB90028F8D00F20242303FB09770A
:1092240000237B61BDE8F087002818BF0F20F4E716
:109234001020F7E71120F5E72046F3E7303300204C
:10924400F8B501F06043B3F1005F04460F465ED108
:109254000379304D242101FB0351496821B1006891
:109264004FF40476C0F80863242000FB03539E697E
:1092740056B1D869002839D021B123684FF404725B
:10928400C3F80423112030E09A61DF60DE612068B6
:109294004FF48871FFF734FE20684FF4A271FFF792
:1092A4002FFE2368C3F83475C3F8382516BB012292
:1092B4001A602479242202FB045252680ABBD3F8B0
:1092C4001011D3F84421D3F82401114302D100280A
:1092D400F5D00A46242303FB04550023984218BF03
:1092E40003209A42AB6118BF0F20F8BD1F61DA61F9
:1092F4000126CCE7D3F8002242F02002C3F8002272
:10930400D7E74FF40472C3F804230020EDE71020DC
:10931400EBE700BF303300200023435082B04358B2
:109324000193019B02B070472DE9F041224E234F77
:10933400DFF88C8000244FF48035D7F80433A6F589
:1093440080412B4289B20CD0336853B1C7F84853DB
:109354003846C7F80853FFF7DFFFD8F80030E0B20B
:1093640098470134042C4FEA450506F10406E4D17C
:109374001248D0F80433DA070AD5D0F800313BB1EB
:109384004FF48071FFF7C8FF0D4B20461B689847C8
:109394000A48D0F804339B070CD5D0F804314BB1FC
:1093A4004FF48271FFF7B8FF054BBDE8F0411B682D
:1093B40005201847BDE8F0814041024000400240CA
:1093C4005433002008B5094B1B7853B10020FEF735
:1093D40065FF0120FEF762FFBDE808400320FEF7A9
:1093E4005DBFBDE80840FEF765BF00BF58330020ED
:1093F400F8B57A4C237805461BB100232370FFF798
:10940400E1FF172D00F28780DFE805F00C17174203
:109414005364757F878C878C949999999999C3C85B
:10942400D0D8E3E3FFF7CEFF6D48FEF797F86D4B16
:10943400002204461A702046F8BD0020FEF714FFEF
:10944400F0B10020FEF72AFF022D0CBF4FF4E164B7
:109454004FF47A64634B1D7000254FF400464FF4BB
:10946400FA7029464FF47A720023E4FB060102F0F5
:1094740065F92A460146BDE8F8405948FEF726B882
:10948400FEF700FF022D0CBFC8244FF4C874E1E7B7
:109494000020FEF7E9FE40B10020FEF7FFFE4FF486
:1094A4004874504B03221A70D6E7FEF7EBFEC8242B
:1094B400F7E70020FEF7D8FE38B10020FEF7EEFEF5
:1094C4004FF47A64474B0422EDE7FEF7DBFE4FF4DA
:1094D400C874F7E70020FEF7C7FE48B10020FEF786
:1094E400DDFE404B05221A7041F69A110022C2E7B4
:1094F400FEF7C8FEF5E70020FEF7FAFE394B062218
:109504001A70002240F6CD41B5E70020FEF7BAFEFE
:10951400344B07221A7000248DE701202070FEF7D7
:10952400E7FEEEE701202070FEF7E2FE00224FF492
:109534008041A0E7FEF7CDFE2A4B0C22EAE72A4839
:109544002A4EFEF70BF8D5F1110504461CD0D8B904
:10955400012D13D0C820454321464FF400474FF452
:10956400FA704FF47A720023C5FB070102F0E6F8A3
:10957400224601461C48FDF7A9FF04460220FEF7D7
:1095840081FE0123337056E70220FEF787FE002395
:10959400F8E7FFF717FF134B1222BBE7FFF712FFA1
:1095A4000020FEF76FFE0F4B1322B3E7FFF70AFF0D
:1095B4000120FEF767FE0B4B1422ABE7FFF702FF17
:1095C4000020FEF75FFE0120FEF75CFE054B15222E
:1095D400A0E7FEF77EFE034B1D709CE7AC33002032
:1095E4007C330020AD3300205C330020583300204E
:1095F40010B5002914BF03240024FEF78BFE80005D
:1096040000F1A040D0F8002722F44032C0F800272F
:10961400D0F8003743EA0443C0F80037002010BDF7
:10962400044B1B6813F0010301D0FFF7E1BE184699
:10963400704700BFA8330020032811D8012A0AD19B
:1096440001290FD100F10E02D2B20D4B00EB400004
:109654001A54002070470129F7D0022904D049B1D7
:10966400072070470022F8E7054B00EB4000184440
:109674004270EEE7024B00EB400018448270E8E7CA
:109684009C330020032802D80121FFF7B1BF062034
:10969400704708B5012202210020FFF7CDFF08B171
:1096A400072810D1072202210120FFF7C5FF08B1C6
:1096B400072808D100210A220846FFF7BDFF10B190
:1096C400072808BF002008BD0388102B10B502D05E
:1096D400112B1ED010BD1A4C2168B1B901220846C5
:1096E400FFF7AAFF08B1072824D10722022101208D
:1096F400FFF7A2FF08B107281CD104220221002091
:10970400FFF79AFF08B1072814D1236801332360B7
:10971400E0E70B4A1368013B1360002BDAD1FFF733
:10972400B8FF0028D6D0074B1B68002BD2D0BDE869
:1097340010401847034B1B68002BE6D09847E4E71A
:10974400B4330020B033002008B50020FFF79AFF9F
:1097540008B1062806D10120FFF794FF10B10628AE
:1097640008BF002008BD76DF70477ADF70477CDFD2
:1097740070477FDF70478FDF7047B1DF704733DF9B
:109784007047FDF7D9BB08B50020FFF749FF08B1C2
:10979400FDF7D2FBFFF7D8FF08B1FDF7CDFBFFF7CC
:1097A400EEFF18B1BDE80840FDF7C6BB08BD0000D8
:1097B4000388212B13B504464AD007D8112B2DD08A
:1097C400132B53D0102B0CD002B010BD522B5DD0F4
:1097D400562B01D03B2BF7D1A0881321FFF7C3FFF1
:1097E4004BE02E4B2E482F49C01AC008000440F00D
:1097F4000300FDF711F92C4BA1882C4801221A70A3
:109804002B4B00221A702B4B198001F0EFFB002820
:10981400DAD002B0BDE81040FDF78EBB1F4B2048E4
:109824002549C01AC008000440F00300FDF7F4F80D
:109834004FF0A0434FF40022C3F80C251A4A00232A
:1098440013701B4A13701B4B4FF6FF721A80BBE751
:10985400002380888DF8043001A98DF80530FFF7C6
:109864008AFF0028B0D0FDF767FBADE7114800235D
:1098740000881A468521FFF77CFF08B1FDF75CFBE1
:10988400094A002313700A4A13709DE7094800230C
:109894001A4619460088FFF770FFEEE714BB020072
:1098A40044BB020046C20200B33400201C3800202E
:1098B400B0340020C62A002050C2020008B5037844
:1098C4004BB9054B3B211888FFF74DFF18B1BDE894
:1098D4000840FDF731BB08BDC62A002008B548B1D1
:1098E40003280BD10220FFF79BFE38B1BDE80840E6
:1098F400FDF722BBBDE80840FFF745BF08BD0000E7
:10990400F7B50378012B33D0022B31D073BB1B4C3A
:109914001B4D20782844FDF7FFFE23780133DBB28A
:109924001D44237015F8012C0A2A05D00D2A03D0F2
:10993400144A12889A4219D8012B15D9124D104E87
:10994400124F2378ADF806300DF106022B8831460C
:10995400384601F0B7FC082806D01328F1D00528B2
:1099640002D008B1FDF7E8FA0023237003B0F0BD7C
:10997400406803B0BDE8F040FDF7DEBAAA35002028
:10998400B8330020C42A0020C62A0020C82A002098
:10999400F7B501780446002942D1F422234801F0A6
:1099A400F1FF2169A28A881810F8013C0A2B39D1E9
:1099B40010F8023C0D2B37D1023A1C4801F09FFFEE
:1099C4001B4B1C4C194A1C491C4D1D4E1D4FE41ABF
:1099D400E408240444F003042046FDF721F8FCF7CE
:1099E400B9FE0323ADF806300DF106022B8831468B
:1099F400384601F067FC082806D01328F1D0052862
:109A040002D008B1FDF798FA0D4B0F491A462046CB
:109A1400FDF70FF80D4B00221A700D4B01221A703E
:109A240003B0F0BD0D2BCBD1013AC6E7B63400200C
:109A340014BB020044BB02005DC20200C62A00201F
:109A440067C20200C82A00206BC20200B53400209D
:109A5400B2340020012910B50C4620D114281ED19F
:109A64000F4B1B78DBB10F4B0F481049C01AC008CD
:109A7400000440F00300FCF7CFFF4FF0A042D2F8FF
:109A84000435D94301F4002103F40023C2F8081576
:109A9400C2F80C35064B1C70064B00221A6010BD30
:109AA400B434002014BB020044BB020090C2020084
:109AB400B1340020AC34002038B5054D044645F0DF
:109AC40001054FF47A40A847013CFAD138BD00BFE4
:109AD40020C302000D4B4A881B889A4214D10A887D
:109AE40040F677239A420FD18B88094A09480A49DC
:109AF400033B9BB21380094A801AC00800041A462B
:109B040040F00300FCF795BF704700BFC62A002051
:109B1400C42A002044BB02009DC2020014BB020000
:109B2400FDF70ABA70B54FF0A0454FF40026C5F80A
:109B340008654FF4FA70FFF7BFFF03249620C5F8B9
:109B44000865FFF7B9FFC5F80C659620FFF7B4FF69
:109B5400013CF3D170BD000008B50849084801F084
:109B640025F908B1FDF7E8F90548F72101F032F9C4
:109B740018B1BDE80840FDF7DFB908BDD99A020065
:109B84000438002000B5754D0FCDB1B005AC0FC43D
:109B940095E80300724B734A01934FF4807384E891
:109BA4000300CDE9032302936F4A072301A905A803
:109BB400FDF75AFD08B1FDF7BFF94FF4004100204D
:109BC400FCF76EFD08B1FDF7B7F9FCF79DFCFDF756
:109BD4003BFC08B1FDF7B0F9644840F2666201212C
:109BE400FDF73EF908B1FDF7A7F9FDF78FF908B1C4
:109BF400FDF7A2F94FF0A0430322C3F84C27C3F8A2
:109C04003827C3F84427C3F84827C3F85C27C3F8A8
:109C14006C27FEF73DF908B1FDF78EF901F0CEFB94
:109C240008B1FDF789F9002305A90120059301F086
:109C340057FC08B1FDF780F905A801F011FD08B142
:109C4400FDF77AF911234A498DF80430122201A84C
:109C5400FFF78DFD08B1FDF76FF90023ADF818305B
:109C64001023ADF814303C23ADF8163005A84FF49A
:109C7400C873ADF81A30FFF778FD08B1FDF75CF949
:109C8400FFF76AFF3B4B3C48059305A901F09CF99B
:109C940008B1FDF751F9394B3948019301A901F095
:109CA40097FA08B1FDF748F9AC22002105A801F0A4
:109CB40069FE02238DF8143006238DF81730012332
:109CC400ADF860308DF8903040232E4A27932E480B
:109CD4002E4B199205A92E9300F0A5FB08B1FDF7B0
:109CE4002BF92948012100F09BFB14220DEB020003
:109CF400002101F047FE4FF470234FF42032CDE9E8
:109D0400062303238DF82030214B0A9305A8214B09
:109D14000B9300F047FE08B1FDF70EF9FFF702FFC1
:109D24001D4B1E4801221A7001F0CDFD1C4B1D482D
:109D34001D49C01AC008000440F00300FCF76CFE83
:109D44001148032100F0ECFB08B1FDF7F5F8FCF72E
:109D540001FD0028FBD1FEF7B1F8F8E708C30200C3
:109D6400283800202839002005990200B82A00204C
:109D7400B9C20200879702001C380020959902009E
:109D8400C82A0020C02A0020AC350020E198020037
:109D9400C1980200259B0200B4340020CCC202000A
:109DA40014BB020044BB0200DDC202000369C268A6
:109DB40093429CBF80681B18013B981A70472DE999
:109DC400F843D0E902940546A9EB0408406890459D
:109DD40020440F46144404D901F0ABFDEC60BDE807
:109DE400F8834246A4EB090401F0A3FD6868224607
:109DF40007EB0801F0E72DE9F843C56806468946F4
:109E040017464FF000083469B3687068A54228BF4C
:109E1400E418013C621B5C1BBC4228BF3C469442D4
:109E240028BF144649462844224601F082FDB368FF
:109E34002544AB4208BF00253F1BA044A144F56064
:109E4400E1D14046BDE8F88310B5114C114AA26136
:109E54000223C4E90433104BE361A2644FF400739A
:109E64000E4A0F492362E26400231022E01DA3621C
:109E74006362E362A3656365E365226501F0B5FD92
:109E84000849204601F0B1FD2023A37110BD00BF95
:109E9400283A002026C30200B03A0020A03A00204D
:109EA4002FC3020033C3020070B5164B182400FB05
:109EB40004451D4404FB00331646DC6A012C0ED015
:109EC400022C18D0E4B92846FFF770FF864204D864
:109ED40032462846FFF773FF3446204670BD2846B5
:109EE400FFF764FF8642344628BF044622462846CC
:109EF400FFF765FFF1E72846BDE87040FFF77BBF39
:109F04000024EAE7283A0020FFF79EBF6DDF704780
:109F140079DF70477DDF704764DF70472DE9F04FCC
:109F240085B000250E9CBDF83CB0B4F800A00191AA
:109F3400074690461E46A9463A884A450DDC45B177
:109F44002388013BA3EB0A039BB2FF2B3AD806F804
:109F54000A30002005B0BDE8F08F7A6852F8290075
:109F6400039000220DF10B0103A8FFF7D5FF002891
:109F7400F0D19DF80B20424521D12288002D14BF39
:109F84000020022002EB0801014459451ADC3DB9C6
:109F9400013292B2019B2280B35422880132228082
:109FA40022880DF10B01324403A8FFF7B5FF002806
:109FB400D0D121889DF80B200A442280012509F183
:109FC4000109B9E70C20C5E72DE9F341089FBDF865
:109FD40024801546CDE90078022204461E46FFF788
:109FE4009DFF50B93346102229462046CDE9087812
:109FF40002B0BDE8F041FFF791BF02B0BDE8F081C7
:10A004002DE9F04F00231788138090F82D3085B088
:10A0140006460D4614465BB3082F01D80C2028E1F0
:10A0240002A8FFF773FF002840F023812388DDF89E
:10A0340009100822EA54238801339BB21B2223808F
:10A04400EA54238801339BB2EA182380E950BDF80F
:10A054000D30938023889DF8082006339BB212F0BC
:10A06400FE0218BF01222380EA542388013323808F
:10A07400B378FBB123880433BB42CFD802A8FFF7DF
:10A0840047FF002840F0F58023880322EA54238800
:10A0940001339BB219222380EA542388BDF8082097
:10A0A40001339BB2E9182380EA54120A4A702388C8
:10A0B40002332380F2789AB12388D91CB942ADD8EF
:10A0C4000221E954238801339BB201212380E954FE
:10A0D40023880B449BB22380EA5423880B442380B7
:10A0E4007268AAB12388D91CB94297D8022192F97F
:10A0F4000020E954238801339BB20A212380E954C8
:10A10400238801339BB22380EA54238801332380BC
:10A114003389002B40F0A180338A5BB1CDE900473D
:10A124002B460722032106F11000FFF74DFF0028FC
:10A1340040F09F80338B5BB1CDE900472B4615225D
:10A14400142106F11800FFF73FFF002840F091802A
:10A15400326A002A40F09080D6F82480B8F1000FCB
:10A1640030D0B8F804302188981C8A1C0244BA42C2
:10A174003FF654AFFE283FF651AF03336B542388A8
:10A1840001339BB2FF222380EA54238801339BB21C
:10A194002380B8F80020EA54E918120A4A7020888B
:10A1A400023080B22080B8F804205AB1D8F80810E0
:10A1B40000296BD0284401F0BCFB2388B8F80420A4
:10A1C4001344238096F82C30002B40F0988030788C
:10A1D40000284ED03388012B58D0228802F1020C7B
:10A1E400BC453FF61BAF012805D1737802331344F5
:10A1F4009F42FFF413AF023FBF1ABFB202A905EB9F
:10A204000C00ADF80870FFF785FE90BB3178BDF8FF
:10A214000830022900F0B98072789A4202D39F4232
:10A2240080F0B180012940F0B280974293B2C0F02F
:10A23400AE80ADF808300821BDF80830FE2B3FF69B
:10A24400EDAE22880133AB542288013292B22280CF
:10A25400A9542288134423800BE0CDE900472B4600
:10A264000622022106F10800FFF7AEFE00283FF4A3
:10A2740053AF05B0BDE8F08FB4F800C00CF106038D
:10A28400BB423FF6CBAE1188052901D80720F0E781
:10A294006FF4486E01EB0E039BB24FF27D3E7345A3
:10A2A400F4D95388052BF1D96FF44860181880B29B
:10A2B4007045EBD94FF6FF70814201D09942E5D841
:10A2C400052305F80C30238801339BB21221238027
:10A2D400E954238801339BB223801188E954E81898
:10A2E400090A4170238802339BB223805288EA54BE
:10A2F400E918120A4A702388023323802CE7B36AD0
:10A30400002BC3D04FF000084FF00C0A4FF0160B8F
:10A31400B16A5FFA88F20AFB02F201EB0209B9F8AA
:10A324000430981CFE283FF679AE208803332B5462
:10A33400238801339BB2238005F803B023880133BB
:10A344009BB223808A5AEA54E918120A4A70208878
:10A35400023080B22080B9F804205AB1D9F808102C
:10A36400002993D0284401F0E4FA2388B9F80420A2
:10A374001344238096F82C2008F101085FFA88F32F
:10A384009A42C5D823E7092156E79F42FBD2ADF88C
:10A39400087050E770B5C0B14AB116880024B442C1
:10A3A40003D305196D789D4208D0A14201D800203D
:10A3B4000BE0055D01352C44A4B2F0E7A142F6D9C7
:10A3C400A31C1380005D013880B270BD13B5134621
:10A3D4000022ADF806200DF106020446FFF7DAFF6D
:10A3E40010B1BDF80630E01802B010BD72DF70473E
:10A3F40073DF704738B5012204460D46B0F83812B1
:10A40400D0F83402FFF7E2FF00B1057004F13C021A
:10A4140004F50D7104F15400BDE83840FFF7E6BFC0
:10A4240080F830107047F8B504460F46002973D001
:10A43400002871D091F87A301BB191F89830002B34
:10A444006CD1D7F8A030042B68D0D7F89C30042BFB
:10A4540064D04FF0000C84F802C007F178060FCEE8
:10A46400251D0FC50FCE0FC596E8070085E8070028
:10A4740084F830C0D7F8A4306363D7F8A830A36356
:10A4840004F50D724FF6FF73C4F84AC2A4F84832BB
:10A49400C4F84422C4F84DC222780AB984F854306E
:10A4A40094F82430002B14BFEE231F2304F155012C
:10A4B400C4F83412A4F8383204F50E723846FFF7A3
:10A4C4009FFD40BB94F82430002B14BFEE231F23C0
:10A4D40004F24311C4F83C12A4F8403204F510729B
:10A4E40007F13C00FFF78CFDA8B9A369A4F8483034
:10A4F4004FF480730125A4F8503063692064014649
:10A5040084F83C50636404F13C0204F15400FFF706
:10A514006DFF00B92570F8BD0E20FCE70720FAE7AF
:10A52400F8B5067804460D46002E00F0038100239A
:10A53400C0F84A32C0F84D32C388817000F24A270D
:10A544000BB1012903D0E37943B1022D06D1636B2A
:10A55400A3B1012284F851220820984704F24B2227
:10A5640004F2512112F8013B5BB99142FAD16A1EFF
:10A57400032A4FD8DFE802F0070D111484F8513292
:10A58400ECE73346F3E7A2791AB194F8242002B930
:10A594005BB9E2790AB1002B3ED1237A002B3DD17D
:10A5A400637A002B0CBF00250425636BA570002B78
:10A5B40036D0033D012D33D862798AB394F8522200
:10A5C40072BB84F85422012284F85322072098474E
:10A5D40004F13C0518220021284601F0D3F9E26A6F
:10A5E4000123511E994284F83C3098BFD3B284F8B9
:10A5F400513094F8243088BF00261BB1A6B1A26A5A
:10A6040084F85220A278042A1ED8DFE802F07A0FD8
:10A6140025385C000025C8E70225C6E70325C4E702
:10A62400002384F85332D3E70122E9E7012384F8B5
:10A6340031300023C4E91073C4F84432022384F88F
:10A644003C308023A4F84830A378002B5DD1636BA1
:10A65400002B6BD1002068E0002B14BF07230323D9
:10A6640084F83C302369A4F8483000230222C4F85B
:10A674004432E36884F8312027646364E4E7626960
:10A684006264A269A4F8482013B1062384F83C301C
:10A694006379B3B194F852329BB994F8543283B1CC
:10A6A400022384F8503004212046FFF7A3FE00283B
:10A6B400CAD1052384F8313004F50D73C4F844324B
:10A6C400C2E70323F6E7E2696264226AA4F8482039
:10A6D40013B1062384F83C30637983B194F8523281
:10A6E4006BB994F8543253B1022384F850300421E6
:10A6F4002046FFF77FFE0028A6D10623DAE70423CD
:10A70400D8E7002384F831309EE7D4F844122A466F
:10A7140004F15400FFF76AFE38B994F8301094F845
:10A724005400FFF765FE002891D0F8BD94F831007D
:10A7340098478FE70820F8E70388112B10B50C46DB
:10A744000AD0262B1FD0102B05D1C37B012B02D19D
:10A754008388A1F8483210BD0022838881F85222F0
:10A76400B1F848229A42F6D10B79002BF3D101219A
:10A774002046FFF7D5FE0028EDD0A36B002BEAD0CE
:10A78400BDE810401847037A013B012BE3D88978D0
:10A7940005230131B1FBF3F303EB8303C91AC9B2F7
:10A7A400E6E7704775DF704776DF70477ADF7047FA
:10A7B4007BDF7047034B1A8882420CBF1846002087
:10A7C400704700BFCC3C0020024B9B6903B1184783
:10A7D400704700BFB03C002073B585B22846FFF730
:10A7E400E9FF044638B3174E027A337B9A420CD2FF
:10A7F40000F10A012846FFF7D5FFF0B111281AD05D
:10A8040002B0BDE87040FFF7DFBF00230372337C62
:10A8140043B13B212846FFF7C7FF30F0080301D0BE
:10A82400FFF7D2FF736933B100228DF80420ADF82D
:10A83400065001A8984702B070BD237A01332372F1
:10A84400F9E700BFB03C002037B50B46497A0F4A00
:10A8540079B9D2E901141D7A0246002D18BF2146A8
:10A864005868FCF733FE78B103B0BDE83040FFF719
:10A87400ABBF00211972536933B10122ADF8060050
:10A884008DF8042001A8984703B030BDB03C0020E7
:10A894004B8802889A4212D842889A420FD3808801
:10A8A4008B8840F2F311884294BF021A421A9A42EA
:10A8B40005D80844984234BF002001207047002086
:10A8C400704700000388122B70B5014659D004D894
:10A8D400102B1ED0112B44D070BD502BFCD12F4B0C
:10A8E400C288DB899A42F7D1038A022BF4D1868885
:10A8F4003046FFF75FFF05460028EDD001F1120056
:10A9040000F063F938BB6868FCF728FE0028E3D040
:10A9140009E0C37B012BDFD14FF6FF70FFF74AFF3D
:10A92400054620B90420BDE87040FFF74DBF1C4A1E
:10A934008E880680002303721368C0F80A305368B7
:10A94400C0F80E3010310A30FFF7A2FF134B6872C3
:10A95400DB89002BC0D129463046BDE87040FFF7A3
:10A9640073BF8088FFF726FF04460028B4D04068F0
:10A97400FCF7F4FD08B1FFF727FF4FF6FF732380C0
:10A98400AAE786883046FFF715FF05460028A3D0BE
:10A9940008310A30FFF77CFF6872DCE7B03C002026
:10A9A400E03C0020F8B5064648B305460FCD154FE8
:10A9B4003C460FC495E8070084E807003068124C51
:10A9C4003C60B0B1FFF7F2FEC0B93268136823608F
:10A9D400536863600D480E4A4FF6FF7303800D4BB6
:10A9E40040F8043F0021FCF75FFD002818BF032056
:10A9F40004E02046FFF7DCFE0028EBD0F8BD0E2073
:10AA0400FCE700BFB03C0020E03C0020CC3C002030
:10AA1400DDA70200E83C002073B50191019C0646C5
:10AA24006CB100252C46294601A8FCF700FF18B19B
:10AA340006EB440301349D800135142DF3D13046D7
:10AA4400346002B070BD00002DE9F04703888488AB
:10AA5400112B8CB005463DD01A2B42D0102B19D1A6
:10AA6400DFF8C080D8F80830DB430093D8F804102E
:10AA74006846FCF708FF009901A8FFF7CDFF0DF128
:10AA840008090027019B9F4207D3132C12D90420E5
:10AA9400FCF752FA0CB0BDE8F08739F802AB002697
:10AAA4000136514608EB8600FCF7B7FE1D2EF7D1A0
:10AAB4000137E7E716482146FCF7A6FE154821466C
:10AAC400FCF7A2FEEB7B012BE4D013482146FCF7F4
:10AAD4009BFEDFE70E4821460CB0BDE8F047FCF7CB
:10AAE4009CBE037A0D481F2B4FEA131521460AD941
:10AAF400FCF78AFE022D0A482146EDD00CB0BDE8D1
:10AB0400F047FCF781BEFCF788FE05482146E3E7E1
:10AB1400103D00200C3D0020143D0020183D002075
:10AB24001C3D0020083D00201328014602D802489D
:10AB3400FCF77DBE002070470C3D002010B5044694
:10AB4400FFF7F2FF002814BF2046142010BD70B593
:10AB54000546164608460AB90E2070BD0023136048
:10AB6400002DF9D02B68002BF6D0EB8813F00304EA
:10AB74000ED1FFF7E3FFC0B214280BD02B79834228
:10AB84000AD9EA882B6800FB023030602046E4E7EB
:10AB94000720E2E70520E0E70420DEE7AADF7047AC
:10ABA400002301380B70042806D8DFE800F0030600
:10ABB400080A0C0011230B7070472123FBE7312393
:10ABC400F9E71223F7E72223F5E7008800F00100F4
:10ABD4007047F0B58B7891B00C46012B38BF012338
:10ABE40000278DF80E3005460B88607CADF80C30DC
:10ABF4006946ADF800708DF80270FFF7D1FFA07CB4
:10AC04000DF10101FFF7CCFF1646237BE27B217D8A
:10AC140043EAC203227C43EA02139DF80220B942AC
:10AC240022F0190203F0190314BF02210121134376
:10AC340061F342031C22394609A88DF8023000F062
:10AC4400A1FE637B13F0300F14D00DF10901E07CF9
:10AC5400ADF808708DF80A70FFF7A2FF11238DF884
:10AC640008309DF80A30012102AA61F342038DF8ED
:10AC74000A300E92637B8DF82430A37B8DF8253047
:10AC84000023CDE90633089303AB0493A388ADF8FE
:10AC94001C30A368CDF814D01BB1E288ADF818209D
:10ACA4000893A36973B301A90022ADF804208A7044
:10ACB4001A88ADF82C205A88ADF82E205A680D91C8
:10ACC400187B0A92FFF76CFFA3690DF10501587B0D
:10ACD400FFF766FFA3699A7A197A41EAC201DA7A20
:10ACE4009B7B41EA02119DF80620002B01F019011B
:10ACF40022F0190214BF02230123114363F342011A
:10AD04008DF80610E36903B10C93334604AA09A92C
:10AD14002846FFF743FF11B0F0BD90DF7047A5DF71
:10AD24007047B5DF704700007FB50023ADF8081009
:10AD3400ADF80A106A4602A90646ADF80C30ADF823
:10AD44000E300093ADF80430FFF7E7FF054600B37B
:10AD5400114B124CE41AE408FDF716F9240444F0EC
:10AD6400010403460E4932462046FBF762FEBDF855
:10AD74000020BDF8023052EA030103D009492046FD
:10AD8400FBF757FEBDF804201AB107492046FBF72C
:10AD940047FE284604B070BD14BB02005CBB020031
:10ADA4003AC3020084C30200C3C3020080B14FF05F
:10ADB400F7130360FB230371F723C3801723038175
:10ADC40041F6FB32002301614381828118467047BA
:10ADD4000E20704730B1A1F11703E02B04D8018095
:10ADE400002070470E2070470720704713B50346B4
:10ADF40080880C46B8B91A88242A00F09C8014D89C
:10AE0400112A74D0232A00F0A780102A3ED0A37AF6
:10AE14004BB1E1880020FFF782FF002840F0A280B8
:10AE24004FF48073638102B010BD3A2A68D0552A6A
:10AE3400EDD1DB88C988A072172B38BF17238B424A
:10AE440028BF0B462381FFF76CFF60B1FDF79CF828
:10AE54004E4B4F4902464F481B1ADB081B0443F074
:10AE64000100FBF7DDFDE27A002AD0D12369002B33
:10AE7400CDD040F67721ADF802202289ADF800103C
:10AE8400ADF80420694620469847C0E7DB7B0A7981
:10AE94000A73012B13D0022B14D0E18823898B422F
:10AEA40005D20020FFF73BFF70B90123E372217B39
:10AEB400637B8B42ABD20020FFF736FFA7E70B88FA
:10AEC400E380EAE74B88FBE7112802D10123A37250
:10AED400EDE7FDF759F82D4B2F4902462D481B1A73
:10AEE400DB081B0443F00100FBF79AFDDFE7F723BF
:10AEF400CB8017230B8141F6FB3348818B8186E796
:10AF04005B89CA88934228BF1346172B0A6938BF46
:10AF140017230B8162B1C97A51B140F67721ADF89C
:10AF24000010ADF80200ADF80430694620469047A1
:10AF3400002363816BE71A7A0B694A73002B3FF491
:10AF440066AF4DF67A218DF80500ADF80010ADF826
:10AF540002008DF8042095E7197A237B994228BFD3
:10AF64001946A9E711283FF45EAFFDF70DF8074B2A
:10AF74000949024607481B1ADB081B0443F0010079
:10AF840002B0BDE81040FBF74BBD00BF5CBB020044
:10AF94004AC4020014BB020019C40200B0DF7047A7
:10AFA40066DF704710B5002104464088FFF7F8FFBC
:10AFB400034608B9237210BD112801D10123F9E712
:10AFC4006368BDE81040184760B159B10378DE2BBF
:10AFD4000AD00B684360DE2303704FF6FF7343808F
:10AFE400002070470E2070470820704728B103786E
:10AFF400DE2B04D14180002070470E2070470820CA
:10B004007047F0B5054685B00C46002942D00028AB
:10B0140040D00B78DE2B3DD182884B889A4204D1F4
:10B024000B7A13B10846FFF7BDFF2B88112B33D0E1
:10B03400512B0FD0012B2DD12B7A012B2AD1A9888A
:10B044006288914226D12046237205B0BDE8F040C3
:10B05400FFF7A8BFAE886388B3421BD1AF79022F34
:10B0640018D1AD7B2B1F022B14D800211022684667
:10B0740000F088FC052D18BF4FF4C07369463046B4
:10B0840018BFADF804308DF80070FFF787FF08B1E2
:10B094006368984705B0F0BD6388AA889A4204BFE4
:10B0A4004FF6FF736380F5E7A8DF7047ADDF7047A5
:10B0B400AEDF704762DF704770B505468AB00C4654
:10B0C40000295ED000285CD00388502B33D0572B46
:10B0D4006BD0102B55D181886069002601AA019696
:10B0E400FFF735FD0223218AA888ADF80A6002AA79
:10B0F400CDF80CD0ADF80830FFF7D8FF002840D1C8
:10B10400A369002B3DD00398FFF75FFD002838D0DA
:10B11400019E0EB1012333701822002104A800F00F
:10B1240031FC02238DF81030AB88ADF8183005944B
:10B13400A369079623E08188606902AAFFF707FDE7
:10B144001822002104A800F01DFCAB882189ADF869
:10B154001830EB88029A05949942079218D12E8AE6
:10B16400022E15D16AB105F11200FFF72EFD029BE4
:10B1740048B101221A708DF81060A3690BB104A8BC
:10B1840098470AB070BD187003238DF81030F4E7A7
:10B19400A2899A42F5D1A369002BF2D005F11202DB
:10B1A40008922A8AADF82420E9E78188606902AA16
:10B1B400FFF7CDFC01460028E3D1029E3378002B33
:10B1C400DFD0182204A800F0DDFB0123AAE7000069
:10B1D400F0B53A4B8FB002AD04460A4603F1100CA9
:10B1E4002F46186859682E4603C60833634535460A
:10B1F400F7D1002C5FD0002A5DD01368A3612146EB
:10B204003846FFF757FF002853D12246012512F88C
:10B21400023B8DF8063001A92846ADF80450FFF72B
:10B2240043FF002845D10146202206A800F0AAFBCE
:10B2340022460223ADF8183012F80C3B8DF81A3070
:10B24400BDF824301E4E6088079623F44F6323F024
:10B254000F0343F440632B4306A9ADF824308DF863
:10B2640029508DF82A50FFF7B4FC10BB0146202268
:10B2740006A800F087FB22460323ADF8183012F825
:10B28400043B8DF81A30BDF824306088079623F407
:10B29400875323F01F0343F480532B43ADF824302A
:10B2A40006A940F201138DF82950ADF82A30FFF7B2
:10B2B40090FC0FB0F0BD0E20FBE700BF8EC402006F
:10B2C400F4000100F0B50F4687B016461C4605464B
:10B2D40010B3406901AA1946FFF739FCD0B94FF6FB
:10B2E400FF739C421AD0019BC3B11B78C3B133884E
:10B2F400F42B17D8AB88CDF80B008DF80F00ADF800
:10B30400083002A901232046CDE904678DF80A30EC
:10B31400FFF7CEFE07B0F0BD0E20FBE70520F9E7EE
:10B324000820F7E70720F5E710DF704713B5044658
:10B3340009496846FCF7F3FD019808B902B010BD4D
:10B34400D0E900212046904718B16846FCF7F1FD8A
:10B35400F2E71120F2E700BFACC4020013B50446C3
:10B3640007496846FCF7DBFD019B0BB902B010BD31
:10B374002046D3E9002190476846FCF7DAFDF3E75D
:10B38400C4C402000B4991F816335A09EC23134143
:10B39400DB0706D5084B9A683AB94FF480030B6073
:10B3A400704742F20200FBF7C7BD1A6842F48002FC
:10B3B4001A60704700E100E05C320020F7B5194FD5
:10B3C4003C7864BB184E012520463570FFF7AEFF6C
:10B3D400112821D02046FFF7C1FF144B8DF80340FC
:10B3E400186801900DF10300FCF7D4F9104901A885
:10B3F400FFF79AFF0446B0FA80F0400938709DF8D0
:10B404000300FCF7EBF93CB90A4B34701C70FFF7EE
:10B41400B9FF2846FFF7A2FF204603B0F0BD082479
:10B42400FAE700BF813D0020803D0020A6C4020051
:10B43400596F0200823D0020014B1878704700BF0D
:10B44400813D002007B508496846FCF768FD019B6B
:10B4540013B903B05DF804FBD3E9002090476846B4
:10B46400FCF767FDF3E700BFB8C40200FFF7EABFCB
:10B4740060DF704769DF704761DF704730B5134D97
:10B48400ADF5017D4FF4FA740DF1020103A8ADF896
:10B494000240FFF7F1FF70B9294601A8FCF73FFD10
:10B4A400029B002BF0D003A8D3E90021904701A808
:10B4B400FCF73FFDF4E7052805D00DF5017DBDE857
:10B4C4003040FBF739BD0DF5017D30BD4CC702009E
:10B4D400024B1B780BB1FFF7D1BF7047833D0020AF
:10B4E40030B5054685B00C46002900F0A480002341
:10B4F400CDE90133514A039301230A608DF8040016
:10B504008DF8063001A906232020ADF80830FFF796
:10B51400B1FF60B1FCF738FD494B4A4902464A483D
:10B524001B1ADB081B0443F00100FBF779FA002324
:10B53400CDE9013303932268012301A940208DF84A
:10B544000530FFF797FF60B1FCF71EFD3C4B3F4908
:10B5540002463D481B1ADB081B0443F00100FBF7BD
:10B564005FFA0023CDE90133039322688DF8045078
:10B57400F72301A92320ADF80630FFF77BFF60B164
:10B58400FCF702FD2E4B324902462F481B1ADB08FA
:10B594001B0443F00100FBF743FA00230120226857
:10B5A400039301A9CDE901338DF80400FFF762FF8D
:10B5B40060B1FCF7E9FC224B2649024622481B1ADB
:10B5C400DB081B0443F00100FBF72AFA0023CDE952
:10B5D400023322684FF4B06301A9A1200193FFF75D
:10B5E40049FF60B1FCF7D0FC154B1B4902461648D5
:10B5F4001B1ADB081B0443F00100FBF711FA0025BA
:10B604002268039501A9A020CDE90155FFF732FF77
:10B61400034668B1FCF7B8FC094B104902460A48D6
:10B624001B1ADB081B0443F00100FBF7F9F92B4656
:10B63400184605B030BD0E23FAE700BF982A002053
:10B644006CBB0200D0C4020014BB020016C5020089
:10B6540062C50200A9C50200F5C5020046C6020083
:10B6640073B505460668FFF703FF2B68B34204462B
:10B674001DD91A481A4B1B491B1ADB081B0443F03B
:10B6840002000190FBF7C8F92B681749019832466C
:10B69400FBF7CFF94FF080532A68D3F80C311349E4
:10B6A40001989B0203F100539A1AFBF7B9F92CB9DC
:10B6B4000F4B01221A70204602B070BD2046FCF7E1
:10B6C40063FC074B0B49024604481B1ADB081B04A6
:10B6D40043F00100FBF7A4F9EDE700BF14BB02003F
:10B6E4006CBB020099C60200C8C60200F9C602007B
:10B6F400833D002023C702004BDF70471FB50E4C6B
:10B7040001A8FFF7F9FF70B9214602A8FCF707FC6E
:10B71400039B002BF4D00198D3E90021904702A8A1
:10B72400FCF707FCF4E7052804D004B0BDE810409A
:10B73400FBF702BC04B010BD64C7020053EA020C5C
:10B7440061D02DE9F04BB3FA83F51E0007BFB2FABE
:10B7540082F502FA05F403FA05F41646C5F120054C
:10B764001EBF22FA05F73C43203556EA044C4FEA43
:10B77400144418BF0134A3464FF00009C846904250
:10B7840071EB030C39D3094207BFB0FA80F700FA12
:10B7940007F6B1FA81F701FA07F6C7F120071EBFD1
:10B7A40020FA07FC46EA0C062037B6FBFBFC7F1B9D
:10B7B400103F07F01F04C4F120060CFA04F42CFA1D
:10B7C40006F644BF34460026202FA4BF2646002494
:10B7D40054EA060C08BF012418EB040849EB0609D7
:10B7E400A4FB027CC01B06FB02CC04FB03CC71EB64
:10B7F4000C01904271EB030CC5D20B46024649463C
:10B804004046BDE8F08BB2FBF3F200007F2805D878
:10B81400034B185C034B5B5C184070470020704777
:10B824007CC70200FCC70200A0F16103192B98BF7A
:10B8340020387047A0F14103192B98BF203070477E
:10B844007F2805D8034B185C034B5B5C184070479A
:10B85400002070477CC70200FCC70200A0F161030E
:10B86400192B98BF20387047A0F14103192B98BFBA
:10B87400203070477F299ABF017001206FF02E009D
:10B8840070475AB10A787F2A0AD800B102600021B1
:10B8940019605960501A18BF012070470020704782
:10B8A4006FF02E007047000008B5034B5B689B687F
:10B8B4001B68984708BD00BFEC2A002008B5092181
:10B8C400FFF7F2FF08BD70B5054600F0E0F8013D52
:10B8D400002615F8010F48B13146FCF75FFB04461A
:10B8E400B0F1FF3FF5D100F0D3F806E000210A20C3
:10B8F400FCF754FB044600F0CBF8204670BDBAB107
:10B9040000B59446013903469E4611F8012F03F809
:10B91400012B22B1BCF1010CF6D15DF804FBBCF1A2
:10B92400010FFAD9F44403F8012B6345FBD1F4E782
:10B934007047844640EA010313F0030F18D184468C
:10B94400202A0BD32DE9F007B1E8F807A0E8F8079F
:10B95400A2F12002202AF7D2BDE8F007042A07D377
:10B9640051F8043B40F8043BA2F10402042AF7D244
:10B97400002A05D011F8013B00F8013B013AF9D146
:10B98400604670478446002A2DD010F0030F04D07F
:10B9940000F8011B013A26D0F7E7C9B241EA0121B8
:10B9A40041EA0141202A12D3A2F120022DE9F00339
:10B9B4000B460C460D460E460F4688468946A0E8BF
:10B9C400FA03203AFBD2BDE8F00320320BD0042A5C
:10B9D40005D340F8041B043A05D0042AF9D200F830
:10B9E400011B013AFBD160467047024610F0030F79
:10B9F40016D111F0030F13D12DE9F0004FF00137E8
:10BA04004FF0803351F8044BA4EB070525EA0405F5
:10BA14001D4002D142F8044BF4E7A1F10401F0BC4B
:10BA240011F8013B02F8013B002BF9D1704700F1FA
:10BA3400010110F0030F11D010F8012B002A23D0BC
:10BA440010F0030F0AD010F8012B002A1CD010F0BC
:10BA5400030F03D010F8012B002A15D02DE9700034
:10BA64004FF001324FF0803350F8044BA4EB020541
:10BA740025EA04051D4000D1F6E7A0F1040070BCDE
:10BA840010F8012B002AFBD1A0EB0100704770478E
:02BA94007047F9
:10BA98006583020000000000A7A70200AC35002063
:10BAA8004DAA020000000000CD9602000000000030
:10BAB8003DA70200AC350020F1AD0200043800209B
:10BAC800C9A802000000000007B002001C380020CE
