:020000022000DC
:1060000000000120756302005D6302005F6302000F
:106010006163020063630200656302000000000028
:1060200000000000000000000000000067630200A4
:1060300069630200000000006B6302006D630200F0
:10604000718A02006F630200B98E0200459402005B
:106050006F6302006F630200418D0200DD8E02005B
:106060006F6302006F6302006F6302006F630200E0
:106070006F6302006F6302006F6302006F630200D0
:106080006F630200D97002006F6302006F63020049
:10609000757102006F6302004DBE02006F63020063
:1060A0006F6302006F6302006F6302006F630200A0
:1060B0006F6302006F630200000000000000000038
:1060C0006F6302006F6302006F6302006F63020080
:1060D000999302006F6302006F63020000000000EA
:1060E00000000000000000000000000000000000B0
:1060F00000000000000000000000000000000000A0
:10610000000000000000000000000000000000008F
:10611000000000000000000000000000000000007F
:10612000000000000000000000000000000000006F
:10613000000000000000000000000000000000005F
:10614000000000000000000000000000000000004F
:10615000000000000000000000000000000000003F
:10616000000000000000000000000000000000002F
:10617000000000000000000000000000000000001F
:10618000000000000000000000000000000000000F
:1061900000000000000000000000000000000000FF
:1061A00000000000000000000000000000000000EF
:1061B00000000000000000000000000000000000DF
:1061C00000000000000000000000000000000000CF
:1061D00000000000000000000000000000000000BF
:1061E00000000000000000000000000000000000AF
:1061F000000000000000000000000000000000009F
:10620000354936480A1A02D0072291438D4634494F
:1062100034480A1A06D00722914381F309880222E2
:1062200082F3148830483149314A00F044F831484B
:106230003149324A00F03FF831483249324A00F0E1
:106240003AF832483249334A00F035F83248334997
:10625000334A00F030F833483349344A00F02BF821
:1062600033483449344A00F026F83448344900228F
:1062700000F02CF833483449002200F027F8334866
:106280003349091A082902DB002202604160314AC1
:1062900090471F481F49884205D00268043003B464
:1062A000904703BCF7E700208646EC46002000211B
:1062B000294A9047FEE7884207D0521A05D0037852
:1062C00001300B700131013AF9D17047884202D098
:1062D00002700130FAE770470000012000E0002062
:1062E000000001200000012060E00200AC2A002034
:1062F000042B0020D4630200D4630200F0CF02001C
:1063000060E00200AC2A0020AC2A002020D102006C
:1063100020D1020020D1020020D1020020D10200B1
:1063200020D1020020D1020020D102005FE0020053
:10633000B8E00200042B0020042B0020042B0020D6
:106340001447002014470020184700201847002059
:10635000186700209D630200B5A30200FEE7FEE778
:10636000FEE7FEE7FEE7FEE7FEE7FEE7FEE7FEE705
:10637000704700BF1048804710484FF0070188431E
:1063800085460F4880470F48016841F4700101605D
:10639000BFF34F8FBFF36F8FFFF732BF0A480B4930
:1063A0000B4A884207D0521A05D0037801300B708F
:1063B0000131013AF9D170477163020000000120F8
:1063C000E985020088ED00E00CD10200982A002047
:0463D000AC2A0020D3
:1063D400004870470C4700207047000007B5044B85
:1063E4000093044A402300F032F803B05DF804FB44
:1063F400FD630200052B00202DE9F843884614466E
:10640400B2B10F4B0F4E0325002743F0010922467A
:1064140008EB0701002004F0E1F90744241A48B905
:1064240033782BB14FF47A40C847013D02D135701F
:10643400BDE8F88301233370002CE8D1F8E700BFEE
:1064440020D10200042B0020704704F0F7B9F0B506
:1064540095B01D46164608460C4601F08FFC1A9B63
:106464000D93CDE9086500252B46082205A9204691
:106474000A958DF82C500C9501F09CFC079B029317
:10648400069B03939DF814308DF8115003F003021A
:10649400012A1DD1BDF81420059DC3F3C203C2F324
:1064A40083168DF81030B20008230EA9204601F09F
:1064B40081FCC5F3952508AB0093324602AB0EA9C7
:1064C400284600F079FB204601F05CFC15B0F0BDD5
:1064D400022AF8D1BDF81650C3F3C203C5F38915D7
:1064E4008DF810300827082D2E4628BF08263B4675
:1064F40032460EA9204601F05DFCAD1B08AB02AA92
:1065040031460EA8374400F0BBFB002DEBD1DAE78F
:1065140008B5FFF79AFF0448042100F0B7FA034BCB
:1065240001225A7108BD00BFFCD00200AC2A002031
:10653400037813F0040216D003F00303012B03D0F5
:10654400022B09D0012070470A6800880232C0F388
:10655400831002440A60F5E70B684288023303EBB8
:1065640092130B60EEE71046704700002DE9F04FE0
:10657400DFF830A187B00F4600230446861C0DF1D6
:10658400070015468DF8073000F0E8FFDAF8001030
:106594003960DAE90132134401335B1A0AF21C4709
:1065A4000AF583690AF21448B3421CD30020002D73
:1065B40073D004F00F039B0143F0050363F30F0052
:1065C400DAF80020DAF808301340033332444AF88A
:1065D40023009DF80700CAF8002000F0E3FF012023
:1065E40007B0BDE8F08F0121384601F0F2F84846C3
:1065F40001F00AF9404601F007F9DAF80400DAF884
:1066040008B0029000EA0B0003300AEB800002A9F4
:10661400FFF78EFF029B50BB0BEA03020AEB8202D8
:1066240003F1020CD2680392013303EA0B0B0AEB69
:106634008B0B02F00302012ADBF80C10CDF808C022
:1066440023D0022A16D08346404601F0E0F810B168
:10665400029BCAF804305946384601F0BAF8DAE920
:1066640001231344DAF8002001339B1A9CE70BEA58
:106674000300C9E7BDF80E30C3F3891303334FEAAF
:10668400114B0CEB93030293DEE7BDF80C30C3F31C
:1066940083134FEA114B6344F5E7A40544F0060065
:1066A4008EE700BF182C00200B4B0C48FF2210B5BE
:1066B4009A600022C3F81824C3E90022C3F8142402
:1066C40083F8202401F013FB044610B9044801F0B8
:1066D400BBFB204610BD00BF182C002070D0020068
:1066E4005CD1020030B50A4C71B10A4A0A49121B46
:1066F400D20800239A4201D1002030BD31F8235042
:10670400854202D00133F5E7034654F83300F4E739
:1067140084D00200FCD00200AC2A0020094B0139CD
:1067240003EBC000032909D8DFE801F00A020406DC
:106734000420704700797047407970470020704703
:106744000220704784D00200034BD3E90030C31AFF
:1067540058425841704700BF182C00202DE9F043DF
:1067640087B0FFF7F1FF0646002840F0FE80804C1A
:10677400C4F81804BFF34F8F6368A56802932B40D5
:10678400033304EB830002A9FFF7D2FE029B18B186
:10679400D4F81824002A62D005EA0302991C0133B4
:1067A40004EB82022B4004EB8303D268DB6804937E
:1067B40002F00303022B0392029163D1BDF80E3061
:1067C4006C48C3F38917502FB84628BF4FF05008C0
:1067D40008F1080168F38F13C1F30901ADF80E3015
:1067E40001F09DFA0646002800F0AA8001F0C6FADE
:1067F4000023082203A9304601F0D2FA029925EABF
:1068040001020132B8EB820F4FEA820333D95FFAF7
:1068140088F863B32940DDB2A8EB050803315FFAB9
:1068240088F9A846544D04EB8101082342463046BA
:1068340001F0B6FA3DB108F10803DBB24A46294635
:10684400304601F0ADFA029B033703EB970702973A
:10685400D4F81834002B4BD1D4F810545BE02268E0
:106864009A428CD86260304607B0BDE8F083424952
:106874001D469946D9E7294003310823424604EBD3
:106884008101DDE7012B5BD1BDF80C303948C3F33E
:106894008311062928BF062161F38913023101F00F
:1068A4000F018900ADF80C3001F039FA06460028D2
:1068B40046D001F063FA0023082203A9304601F010
:1068C4006FFA0027BDF80C20C2F38312BB00974275
:1068D40003F10803BCD202994A1C294003310292F5
:1068E40004EB81010422304601F05AFA0137E9E74A
:1068F400304601F047FAFFF727FF80F00100C6B2E7
:10690400B1E7EB685B7923B12B6831461B682846F5
:106914009847EB681D68002DF3D1304601F032FA38
:106924000DF107008DF8075000F018FED4F8183464
:106934000BB9029B63609DF8070000F033FEDAE7B1
:10694400D4F8104454B90D4B0D480E49C01AC00870
:10695400000440F0020000F063F8CCE7236820460E
:106964009B689847E3681C68ECE700267BE700BF58
:10697400182C002070D00200242C002084D00200A7
:10698400B4D0020044D102002DE9F74F224E044650
:106994000F46924601A901221846D6F808909B4654
:1069A400FFF7E4FD20B3019D4FF00008AA1CD84571
:1069B40008EB020126D11948002100F0CFFE80F334
:1069C4001000000440EA1440E4006B1C04F0380496
:1069D40003EA090305EA090544F0010406EB83030D
:1069E400033544EA881444EA8724D86046F82540ED
:1069F40096F820341BB1FFF7B1FE0028FBD103B099
:106A0400BDE8F08F09EA010106EB81015AF828304C
:106A1400CB6008F10108CAE7182C002034300020AC
:106A240000231A46FFF7B0BF07B50123019201AA5C
:106A3400FFF7AAFF03B05DF804FB07B5CDE9002317
:106A440002236A46FFF7A0FF03B05DF804FB1FB5FD
:106A5400CDE90123069B039301AA0323FFF794FFC7
:106A640005B05DF804FB7FB5CDE90023089B0293D4
:106A7400099B03930A9B04930B9B05936A46062385
:106A8400FFF782FF07B05DF804FB000030B50F4C40
:106A9400D4F8102403460020114631B9D96808718E
:106AA4004AB9C4F810340A6030BDC9680D7985420A
:106AB40006D00968F1E7D26814680C601360F3E744
:106AC40001300A28E8D14FF0FF30EDE7182C002000
:106AD40038B5084B0125D3F8104483F8205404B981
:106AE40038BDE3685D71236820465B689847E368B6
:106AF4001C68F4E7182C002030B5C38885B0044620
:106B04000D4633B1144A00921449154A284600F040
:106B1400E1FE217A05291DD0637A4BB1A088FFF7E5
:106B2400FDFD104B104953F82020284600F0D2FEFA
:106B3400227A0E4BA08853F8222003920021FFF7FB
:106B4400D1FD039A0A490346284605B0BDE8304002
:106B540000F0C0BE05B030BD88D1020070D1020083
:106B640068D10200F4D10200CAD9020018D202008E
:106B74008DD1020007B503460846197A052911D0BC
:106B84005B7A2BB1094A0A49019000F0A3FE0198EF
:106B94000849019000F09EFE019803B05DF804EBF3
:106BA40000F08DBE002AF8D0F2E700BF88D10200C1
:106BB400CAD9020068DB02002DE9F04385B01F4604
:106BC4000C9D002395F80C902B7306460C469046BA
:106BD40029463846FFF790FFB8F1060F09D8DFE8D9
:106BE40008F00412181F283340003146284600F0EC
:106BF40071FE002229463846FFF7BCFF85F80C9049
:106C040005B0BDE8F08322683146284600F062FEF4
:106C1400EFE7D4E900233146284600F05BFEE8E7BD
:106C2400A36800933146D4E90023284600F052FEBD
:106C3400DFE7E3680193A36800933146D4E90023B6
:106C4400284600F047FED4E723690293E3680193E2
:106C5400A36800933146D4E90023284600F03AFEA5
:106C6400C7E76369039323690293E3680193A36805
:106C740000933146D4E90023284600F02BFEB8E700
:106C840008292DE9F74F80460E4617461C463DD885
:106C940000251B7B2573214610460193FFF72CFF2B
:106CA400DFF88CA0DFF88CB0AE4232D918F805209A
:106CB4005946204600F00EFE0135082DF4D11B493B
:106CC400DFF874A0DFF874B0204600F003FE4FF044
:106CD40000094E4524D918F809507E2D1ED828469F
:106CE40005F07AFC002814BF2A462E225946204675
:106CF40000F0F0FD09F10109B9F1080FE9D1012211
:106D040021463846FFF736FF019B237303B0BDE8E5
:106D1400F08F5146204600F0DDFDCDE72E22E5E759
:106D24005146204600F0D6FDE4E700BFA1D10200A1
:106D34009DD1020097D102009FD10200A3D102008D
:106D44002DE9F84F2F4F304E4FF000082F4B1B7892
:106D54005FFA88F5AB4201D8BDE8F88FD7F8009008
:106D640019F835000124A0F12002C0F1200304FA2F
:106D740002F224FA03F31343D6E9001204FA00FCE6
:106D840001EA0C0B02EA030E5BEA0E0E09EBC50ADC
:106D940035D021EA0C0122EA0303C6E9001301F00D
:106DA400C3FF024619F83500194DA0F12003C0F1C4
:106DB400200124FA01F104FA03F30B43D5E900C1DD
:106DC400C0F120050B40A0F1200122FA05F5844012
:106DD40002FA01F1294304EA0C0402FA00F58B4299
:106DE40008BFAC420BD1DAF8043043B19AF8011071
:106DF4004C1E614261418D1A69426941984708F10C
:106E04000108A3E71031002008310020D43000200D
:106E140000310020F8B507461E4800F08FFBB8BBD0
:106E240001251D4EA7F12004C7F1200325FA03F321
:106E340005FA04F41C43D6E90023BD4002EA050028
:106E440003EA040101431DD1384601F06DFF134BE1
:106E5400D3E9001288B129432243C3E90012D6E9D9
:106E640000232A432343C6E900230D4B094819682C
:106E74000022BDE8F84000F019BB21EA050122EA2E
:106E84000402EAE722EA050223EA0403C6E900232E
:106E9400F8BD00BFDC3000200831002000310020A4
:106EA400D8300020042A2DE9F34105460C46164645
:106EB4003BD901F071FEE8B11D4B1E491D601E4B0C
:106EC400DFF888801C701D4B00221E600023C1E97E
:106ED40000231B49C1E90023013CE4B20026032737
:106EE400FF2C0ED1174A1848002102B0BDE8F0412A
:106EF40000F0CABA01F020FE0028DDD002B0BDE8DF
:106F0400F08105EBC40315F834009B788DF8066016
:106F1400424601A98DF804708DF8053001F046FE53
:106F2400013CE4B20028DBD0E8E70720E6E700BF35
:106F34001031002000310020D4300020D83000204F
:106F440008310020456D02002CD20200196E0200A7
:106F540070B5084D084E00242B789C4201D30020C4
:106F640070BD3368012113F8340001F097FE013439
:106F7400F2E700BFD4300020103100201FB50021FB
:106F8400039001AA44F20100CDE9011100F004F8D4
:106F940005B05DF804FB000038B572B6FFF798FD44
:106FA400FFF7DCFB0028FBD1104B114C114D1249AB
:106FB400E41AE408240444F00100FFF731FDD5F895
:106FC400F030DB0700D500BE0C4944F00200FFF7A7
:106FD40027FDBFF34F8FEA68094B02F4E0621343C5
:106FE400EB60BFF34F8F00BFFDE700BF84D002000A
:106FF400B4D0020000ED00E030D202003CD2020026
:107004000400FA05094B5A7899780132D2B29142B8
:1070140008BF0022197891421FBF027058781822C5
:1070240002FB003014BF04300020704714310020EC
:1070340073B5054600240DF107000E468DF8074090
:1070440000F08CFA0DF10600FFF7DCFF90B106703A
:10705400094B9DF8062045605A709DF8070000F022
:10706400A1FA24B9054B4FF48012C3F8002120463D
:1070740002B070BD0424F0E71431002000E100E008
:10708400024B4FF43C6043F00103184750D2020016
:1070940038B50C4B0C4C4FF40032C3F8802001255A
:1070A4004FF48033C4F84833C4F808336560FFF7FD
:1070B400E7FF064BA56000241C60FFF7E1FF044BCB
:1070C4001C7038BD00E100E00010014030320020A7
:1070D40021320020F8B51F4B1F491B680025C1F859
:1070E4004051C1F84451C1F84851C1F84C51C1F85C
:1070F4000051C1F804514BB3D1F80445174909684C
:10710400641A24F07F442F461A68A24209D8A41AAC
:1071140015441A7CDE691AB1D3E905201F7490471F
:10712400AEB90F4A0F4B11781B788B4205D101334E
:10713400DBB2022B08BF0023137012780A4B43F80A
:1071440022500A4B4FF48012C3F80021F8BD334695
:10715400DAE700BF34320020001001403032002052
:107164002D3200202C3200202432002000E100E0E7
:107174002DE9F04FA14AA24913780978A14D99420B
:1071840085B03CD00133DBB2022B08BF002313705F
:107194009D4912789D4B0F6853F822003B1823F049
:1071A4007F4300220B602B6816461446944613B99D
:1071B40042B12B6006E0196881420ED902B12B60FE
:1071C400091A196001272B68DFF848A201934FF0D0
:1071D4000008BEB9DFF844B260E0401A0C44D96834
:1071E400D3F81CE0C3F800C031B13A1922F07F4251
:1071F400C3E90121DE611E4673460122D7E700265A
:107204003746E0E73446F6697F4B60681B68DFF871
:1072140010C2A168C21A22F07F42624500F2A68021
:107224000A442260012222742A680023C4E901333B
:10723400E361002A40F0A3802C60CAE79BF80210A7
:107244005A1CD2B291428BF8002004BF00228BF862
:107254000020182202FB03B32A6819799C680229CA
:1072640075D003297FD0012918D1207CB0B9D3E986
:107274000312A2605A69E2609A69654BA2611A78A6
:10728400002A18BF01466160BEE78C4200F094807A
:107294008946C9690029F8D1002323749BF800307A
:1072A4009BF801209A42C9D12B68B8F1000F04D190
:1072B400019A9A4201D1002F43D0002B79D0D3F800
:1072C40000A0544D504BD5F804751C68DFF8548168
:1072D4003E1B98F8003026F07F4603369BB94FF4E6
:1072E4008033C5F84433C5F804334B4B4FF40032B4
:1072F4004FF00109C3F880211A60C5F80090FFF728
:10730400BFFE88F80090B2452CBF5444A41924F061
:107314007F44C5F84045D5F80435DB1B23F07F4393
:10732400E41B033324F07F44A3420AD9D5F804357F
:10733400C5F84035FFF7A4FE374B4FF40032C3F8CD
:107344000021334B00221A7005B0BDE8F08F1146BE
:1073540091469FE71174D2690123002AFAD1002BC8
:107364009CD02A609AE700231946F6E71B1A23F0FB
:107374007F438B4234BFCB1A0023236052E721683A
:107384001368994213D85B1A1360E26154E7091A2F
:10739400D8691A4638B1034618688842F7D3401AA8
:1073A4001860184613462160E061DC6111E713465A
:1073B400F2E7FFF76DFEC4E74C4511D1D3692B60AA
:1073C40073B9DFF844E00120CDE90212CAF80800DD
:1073D400CEF800300E4B1870FFF752FEDDE90212B2
:1073E4000B68C969C9F81C1011B1086803440B6023
:1073F4002B68934218BF4FF001084DE72C32002050
:107404002D3200203432002030320020243200207B
:10741400203200200010014000E100E0143100207F
:10742400FEFF7F002132002008B5FFF731FE104B2C
:1074340000200B2218809A700E4B18600E4B1870A7
:107444000E4B18700E4B4FF48012C021C3F88021EC
:1074540083F814131A6002F18042A2F56F22C2F875
:10746400080583F81113074BD2F804251A6008BDE8
:1074740014310020343200202C3200202D32002020
:1074840000E100E030320020074B9B784BB132B171
:1074940028B10368187C20B959745A6170470720D1
:1074A40070470820704700BF143100202DE9F743CE
:1074B400DFF8848098F8023005460E461746ABB3D1
:1074C400A0B3042930D9436983B3437C0024012B3E
:1074D4000DF107000CBF8946A1468DF8074000F066
:1074E4003DF80DF10600FFF78DFDD8B101230370BF
:1074F4000F4B4560D3F80435C0E90497C0E9023660
:107504009DF8063088F801309DF8070000F04AF82D
:1075140024B9084B4FF48012C3F80021204603B06D
:10752400BDE8F0830424EFE70724F7E70824F5E730
:107534000010014000E100E014310020064A927876
:107544003AB130B1426922B1002202740221FFF73C
:107554006FBD0820704700BF1431002070B5EFF3F1
:10756400108672B60C4A946801239CB993600B4B45
:107574000B4DD3F8801029401160C3F88050D3F824
:10758400841051604FF0FF32C3F88420047006B9B0
:1075940062B670BD0370FAE73832002000E100E003
:1075A400FC06FFBD084B9A6810B55AB150B9EFF309
:1075B400108172B6054A1C6814605C685460986057
:1075C40001B962B610BD00BF3832002000E100E00E
:1075D40010B561B1B2FBF3F403FB1424A4B244B9B3
:1075E400C0E9001484608281C381204610BD0E204E
:1075F400FCE70920FAE782B050E8022FC188B2EB19
:10760400324F4FF0000317BF92B241EA014142EA00
:10761400014104E04268B2EB324F08BF012340E865
:107624000212002AE8D18DF807309DF80730002BAC
:107634000CBF1120002002B0704737B550E8013F5D
:107644009DB2C48925448489A54228BF2D1B048981
:10765400A54202BFBFF32F8F002207E0C5EA03054E
:1076640040E80154002CE9D14FF001028DF80320C9
:107674000193019A0A609DF8031001F0FF0321B100
:10768400006810FA82F003B030BD1846FBE70A88A0
:107694004B889A4209D150E8012FC2EA024240E8DD
:1076A4000123002BF7D1012070470020704737B524
:1076B40050E8023F1FFAA3F5C488A54202BFBFF3F6
:1076C4002F8F00220DE0C48925448489A54228BF58
:1076D4002D1BC3EA054540E80254002CE8D14FF0C5
:1076E40001028DF803200193019A0A609DF80310AA
:1076F40001F0FF0321B1006800EB124003B030BD7C
:107704001846FBE70A884B889A4209D150E8022FB1
:10771400C2EA224240E80223002BF7D1012070473D
:107724000020704701F01F024B090121914000EB3A
:10773400830000F02AB801F01F0301229A404B098C
:1077440000EB8300D14300F038B84B0901F01F016E
:1077540050F82300C84000F00100704710B50346FC
:1077640053E8000F0A4643E8002494F0000FF7D1D1
:1077740010BD10B5034653E8000F40EA010243E888
:10778400002494F0000FF6D110BD10B5034653E861
:10779400002F42EA010043E8000494F0000FF6D100
:1077A40010BD10B5034653E8000F00EA010243E898
:1077B400002494F0000FF6D110BD10B5034653E831
:1077C400002F02EA010043E8000494F0000FF6D110
:1077D40010BD10B5034653E8002F02EB010043E847
:1077E400000494F0000FF6D110BD10B5034653E821
:1077F400002FA2EB010043E8000494F0000FF6D13F
:1078040010BD0121FFF7B5BF0121FFF7BEBF002165
:10781400FFF7C7BF10B590B1D0E9012301689B1AE7
:10782400DBB20A60013BDBB2FF2B026802D100200D
:10783400107110BD11684C1C14600B70F2E70E201F
:10784400F7E737B5054600240DF107008DF807402A
:10785400FFF784FE2A686B68116899420ED9481EA6
:10786400106011F8013CEC68298A01FB0344AB6801
:1078740011791B1ADBB2994238BF13719DF80700C6
:10788400FFF790FE204603B030BD37B50546002310
:107894000DF107000C468DF80730FFF75FFE2A68EC
:1078A4001368591C1160E968641A298AB4FBF1F45D
:1078B4001C709DF80700FFF775FE03B030BD8268A9
:1078C40010B504462AB1436901680069984700234A
:1078D400A36010BD0EB403B5039921B104AB01AA92
:1078E400019300F077F802B05DF804EB03B0704741
:1078F4000A2938B504460D4602D10D21FFF7F8FFD9
:10790400A3682268591CA160D554D4E901329A4273
:1079140004D32046BDE83840FFF7D1BF38BD00008E
:107924002DE9F84F9846DDE90A43154682460F468D
:107934000A464FF00109AA420FD2C14538BFC146D9
:1079440013F0010B01D16CB900240126B8F1010F29
:107954001BD908F1FF386E43F8E709F10109B2FBBE
:10796400F5F2E8E79B070ED5B8F1000F0CBF3026FF
:107974002026A145E9D2013C31465046FFF7B8FF25
:10798400002CF6D1E0E72026F3E7B7FBF6F39D429F
:10799400E1D9DFF83C80B7FBF6F3504618F8031042
:1079A40006FB1377FFF7A4FF3346AB42B6FBF5F6AD
:1079B400F1D2BBF1000F02D00CB1A14501D3BDE857
:1079C400F88F20215046013CFFF792FFF4E700BFF7
:1079D40056D202002DE9F74F05461746884600297E
:1079E40000F03E8118F8011B49B92B7B002B00F0F5
:1079F4003781284603B0BDE8F04FFFF760BF252963
:107A040040F0B780002698F800302D2B424608F14C
:107A1400010823D0302B24D02B2B25D000242A2B53
:107A240002F1010123D13B681A1D1B683A601C4412
:107A34000A4613782E2B26D101324FF0000A104645
:107A440010F8011BA1F1300CBCF1090F1DD80A2359
:107A540003FB0A13A3F1300A0246F0E746F00106DD
:107A6400D1E746F00206CEE746F00406CBE711F86C
:107A7400013CA3F130000928DBD80A2202FB0434BC
:107A8400303C0A46CBE74FF0000A12F8011B01F024
:107A9400FB0068289046F8D0782909D86F290CD8BB
:107AA400632962D022D8252963D0582900F0888020
:107AB40098F80030002B95D197E770390829F7D84A
:107AC40001A353F821F000BF3F7C0200B57A020005
:107AD400B57A0200D57B0200B57A0200B37B0200BE
:107AE400B57A0200B57A0200C57B0200642901D090
:107AF4006929DDD13A68D2F80090111D89EAE9724A
:107B04003960A2EBE9724FF0010B092A35DCD34549
:107B140038BFD3462CB1B9F1000F01DB720700D591
:107B2400013CB30702D5BAF1000F03D0F00701D42A
:107B34004CBB0024B9F1000F2DDAC9F100092D2145
:107B44002846FFF7D5FE06F00302022A04D1BAF153
:107B5400000F01D11CBB0024CDE9004653460A2284
:107B640049462846FFF7DCFEA2E73B681A1D197850
:107B74003A602846FFF7BCFE9AE70A230BF1010B93
:107B8400B2FBF3F2C1E7A345D4D220212846013C3D
:107B9400FFF7AEFECCE77107D5D52B21D0E7A3457F
:107BA400DAD230212846013CFFF7A2FED2E7396839
:107BB400CDE900460A1D3A6053460A220968D0E717
:107BC40039680A1D3A60CDE9004653461022F5E7AC
:107BD4003B681A1D3A6016F00106D3F8009024D1D0
:107BE400B9F1000F03D0484604F0B3FE0646B44290
:107BF4001DD809F1FF3919F8011F00293FF458AFC6
:107C04002846FFF775FEF6E728460136FFF770FEB3
:107C140019F806100029F7D1A642BFF449AF202174
:107C24002846013CFFF764FEF6E70026F0E7202132
:107C34002846013CFFF75CFED9E73B681A1D3A6011
:107C4400302128461C68FFF753FE78212846FFF7A9
:107C54004FFE00220823CDE900322146102280E79E
:107C640003B0BDE8F08F00BF2DE9F84FB0F806A0CF
:107C74004579D2F800B09DF828900AFB05F5043D3B
:107C840088460BEB0301A94203F1040488BFA5EB6A
:107C9400030BB4FBFAF607460AFB1644C2F800B01D
:107CA4004EB9AAEB04055D4528BF5D46BBF1000F44
:107CB40004D1BDE8F88F3F68013EF1E7043408EBD6
:107CC40006003C442A46B9F1000F0DD02146ABEB27
:107CD400050B04F0C0FDDA452E443F6855464FF0CD
:107CE400000428BF5D46E1E701462046EFE7FFF7C1
:107CF40091BDF8B546790146721E054600239342AC
:107D04002D6803D30024A64202D8F8BD0133F6E758
:107D14000F682846FFF7B9FD01343946F3E72DE92A
:107D2400F843068ACD1C0746FFF78BFD043E354415
:107D34000446B5FBF6F5F0B14FF48073EDB28380E1
:107D4400C680013D076081464FF00008A84512D265
:107D54003846FFF776FD064648B16379013363710F
:107D640008F10108C9F8000007608146EEE72046E3
:107D7400FFF7BFFF34462046BDE8F88301210430F5
:107D8400FFF727BD10B5012104460430FFF72DFD90
:107D9400C0B220B92046BDE81040FFF7AABF10BD0D
:107DA4001FB503920022009203AAFFF75DFF05B0FE
:107DB4005DF804FB1FB503920122009203AAFFF7AA
:107DC40053FF05B05DF804FB41DF7047064B10B567
:107DD40000241C70054B1C60BFF35F8F04490548E9
:107DE40000F03BF8204610BD4C32002050320020F9
:107DF40070D202004432002007B500230DF10700C1
:107E04008DF80730FFF7AAFBF1EE103A23F09F0339
:107E1400E1EE103ABFF35F8F0A4B4022C3F884218E
:107E24009DF80700FFF7BEFB03F0F4FF20B103B099
:107E34005DF804EBFFF7C8BF20BF40BF20BF03B00D
:107E44005DF804FB00E100E0836800225A60C3E9A6
:107E540004229A60DA601A6070470B684A684360CB
:107E6400934208BF0023016008BF43607047436822
:107E740043B10268916852680B449342436004BF63
:107E8400002343607047000010B50D49A1F59472BA
:107E9400914201D800200FE08C1AE30F03EBE403B6
:107EA4005B1002EBC30452F83330834205D802D28C
:107EB40004F10802ECE7606810BD2146E8E700BF62
:107EC40074D7020008B5FFF7DFFF024B002808BF94
:107ED400184608BD36D6020013B50B46114680B9C4
:107EE400104B1148114AC01A0E23C0080093104BBE
:107EF4000004104940F00100FEF7A9FD0E2002B075
:107F040010BD4BB9074B08480B4AC01AC0080E23D2
:107F140000930004064BECE703601B6802B0BDE865
:107F24001040184784D00200D4D0020074D7020055
:107F340042D9020079D70200A8D70200F7B580B968
:107F44002D4B2E482E4AC01AC0080E242D4B0094E7
:107F540000042D4940F00100FEF779FD204603B0EE
:107F6400F0BD4AB9244B2548284AC01AC0080E243B
:107F7400244B00940004ECE7D0F800C0BCF1000FDF
:107F840009D11D4B1D48224AC01AC00808241D4BA4
:107F940000940004DDE74BB9174B18481D4AC01A7A
:107FA400C0080924174B00940004D2E78D0709D0B8
:107FB400114B1248184AC01AC0081024114B0094DF
:107FC4000004C6E7C568A9420BD34D1EEC18056929
:107FD400AC4206D8DCF80840A44603B0BDE8F04043
:107FE4006047054B05480D4AC01AC0081024054BCC
:107FF40000940004ADE700BF84D00200D4D0020096
:1080040074D7020030D9020079D70200AED702003B
:10801400A2D70200B5D70200B9D70200D0D7020018
:108024002DE9F743DDF8288088B93E4B3E483F4AA6
:10803400C01AC0080E243E4B009400043D4940F091
:108044000100FEF704FD204603B0BDE8F0834AB901
:10805400344B3548384AC01AC0080E24344B0094B7
:108064000004EBE7D0F800E0BEF1000F09D12D4B7E
:108074002D48324AC01AC00808242D4B009400042D
:10808400DCE74BB9274B28482D4AC01AC0080924FD
:10809400274B00940004D1E74568D5F80490B3FB5E
:1080A400F9F509FB15354DB11E4B1F48254AC01A79
:1080B400C00809241E4B00940004BFE78D0709D0B3
:1080C400184B1948204AC01AC0081024184B0094B1
:1080D4000004B3E712F0030F09D0124B12481B4AF5
:1080E400C01AC0081024124B00940004A6E7C56807
:1080F400A9420DD34D1EEC180569AC4208D8CDF841
:108104002880DEF80C40A44603B0BDE8F043604785
:10811400044B05480E4AC01AC0081024044B0094AE
:1081240000048BE784D00200D4D0020074D702008C
:108134001DD9020079D70200F6D70200A2D70200A7
:10814400B5D70200FCD7020026D802003ED80200B0
:1081540061D80200F7B580B92A4B2B482B4AC01AC4
:10816400C0080E242A4B009400042A4940F0010060
:10817400FEF76DFC204603B0F0BDD0F800C0BCF1A2
:10818400000F09D11F4B2048234AC01AC0080824F5
:108194001F4B00940004E8E74AB91A4B1A481F4AD7
:1081A400C01AC00809241A4B00940004DDE745688E
:1081B400D5F800E00EF1FF350D4209D0114B1248FD
:1081C400174AC01AC0081024114B00940004CCE7CD
:1081D400C568A9420CD34D1E0EFB02540569AC427E
:1081E40006D8DCF81040A44603B0BDE8F040604770
:1081F400044B05480B4AC01AC0081024044B0094D1
:108204000004B2E784D00200D4D0020074D7020084
:108214000AD9020079D70200A2D70200B5D702001A
:1082240088D80200AED8020070B550B90E4D0F4C7C
:108234000026641B1423B4FBF3F4B44208D10020D9
:1082440010E00368002BF1D0BDE87040DB691847EB
:108254002B6813B901361435EFE7DB6928469847D4
:108264000028F7D070BD00BF982A0020AC2A002057
:1082740029DF704728DF704770B503689E6886B0B1
:1082840004460D466EB114220021684604F00CFB2E
:10829400A3680593237901952BB1012B0DD0684672
:1082A400B04706B070BD01238DF8003023690293F6
:1082B400E368039363690493F1E702238DF80030C4
:1082C400E3681B030293F5E70846704700207047F4
:1082D400024B187A003818BF01207047F032002092
:1082E400034B187A0122B0FA80F05A74400970479F
:1082F400F032002008B510461A4604F0ACFA00200B
:1083040008BD000008B514220021044804F0CCFA8A
:108314000348FFF770F9002008BD00BFF0320020C9
:10832400E032002010B5094C094B43602046FFF7AA
:1083340068FA40B903F06EFD064920741C23064810
:108344008C22FFF745F9002010BD00BFF032002059
:1083540054D9020054320020E032002038B5234DB5
:10836400234C2B7A3BB923492348FFF7A0F920601B
:1083740008B9686038BD022324682B72237973B16D
:10838400012B24D020460321FFF776FF00232B7214
:108394006B6018491848BDE83840FFF7B3B9D4E911
:1083A4000523D21AB2F5805FD4E9031028BF4FF435
:1083B40080529208012A38BF012219441844FFF759
:1083C40057FF50B11128DDD101232B72D2E7D4E934
:1083D40003031844FFF74EFFF3E72B7C002BC9D1AE
:1083E400BDE83840022000F009B800BFF032002098
:1083F4000833002004330020E032002038B5234C39
:10840400237A002B41D0022B09D1032830D0204BF2
:1084140000221B68E2601A793AB1012A22D0637CF7
:108424007BBBBDE83840FFF799BFD3E905128D1A2D
:10843400B5F5805F94BF521902F580529A6191425A
:10844400EDD102284FF0000308BF19462372104BE8
:1084540018BF0D211868FFF70FFF0E490E48FFF7EC
:1084640051F9DCE71A6901321A615B699A42E7E75C
:10847400E3680133082B01D8E360D0E70023E3600D
:10848400DFE7BDE8384003F0B5BC38BDF03200206A
:108494000833002004330020E0320020831E012B27
:1084A40001D8FFF7ABBF704700F0FD03012B08D1E3
:1084B400044B00225A74421E504250411874FFF774
:1084C4004DBF7047F032002010B5064C201DFFF759
:1084D40098F928B9637C1BB9BDE81040FFF73EBF8B
:1084E40010BD00BFF03200202DE9F34180460D4657
:1084F400104801A916461F46FFF79FF80446B0B17D
:1085040018220021043004F0CFF92D0B012323712C
:1085140001A90848C4F80080A760E5606661FFF718
:10852400B6F8FFF7D1FF002002B0BDE8F0810420C7
:10853400FAE700BFE03200202DE9F34180460F4600
:108544000F4801A916461D46FFF777F80446A8B15F
:1085540018220021043004F0A7F9089BA36001A9A4
:10856400C4E903670648C4F800806561FFF78FF823
:10857400FFF7AAFF002002B0BDE8F0810420FAE76B
:10858400E03200204FF0704393F8E02F062A10D118
:10859400D3F8E42F12070CD1D3F8E80F00F0F0035E
:1085A400302B08D000F0E000A0F1400358425841BD
:1085B400704700207047012070474FF0704393F8D4
:1085C400E02F062A0CD1D3F8E42F120708D1D3F8F0
:1085D400E80F00F0F000A0F1300358425841704712
:1085E4000020704708B5FFF7CDFF40B14FF080532E
:1085F400884AD3F82433C3F30423C2F84035FFF781
:10860400DCFF10B1844B854A5A67FFF7BBFF48B1C2
:108614004FF080534FF08042D3F84432C3F34233D7
:10862400C2F83C35FFF7C9FF30B17D4AD2F8FC30BF
:1086340023F08073C2F8FC30FFF7A4FF40B14FF081
:1086440080430022C3F80C21C3F81021C3F8382555
:10865400FFF7B3FF20B14FF080430322C3F8A025F6
:10866400FFF7ABFF60B16F4B0522C3F81026012260
:10867400C3F888260022C3F818263F22C3F814261C
:108684004FF0704393F8E02F062A50D1D3F8E42F2B
:1086940011074CD1D3F8E83F03F0F003502B46D137
:1086A4004FF08052604BD2F80414C3F82015D2F86E
:1086B4000814C3F82415D2F80C14C3F82815D2F8FA
:1086C4001014C3F82C15D2F81414C3F83015D2F8CA
:1086D4001814C3F83415D2F81C14C3F84015D2F892
:1086E4002014C3F84415D2F82414C3F84815D2F85A
:1086F4002814C3F84C15D2F82C14C3F85015D2F82A
:108704003014C3F85415D2F83414C3F86015D2F8F1
:108714003814C3F86415D2F83C14C3F86815D2F8B9
:108724004014C3F86C15D2F84424C3F87025FFF73D
:1087340029FF48B14FF080534FF08042D3F85832AC
:1087440003F04F03C2F8E43EFFF71CFF48B14FF0BB
:108754008043D3F80024D20744BF6FF00102C3F86A
:1087640000244FF08053D3F83021062A0AD1D3F8DD
:108774003431062B01BF2D4AD2F83C3743F48063D1
:10878400C2F83C37264AD2F8883043F47003C2F862
:108794008830BFF34F8FBFF36F8F4FF01023D3F8A0
:1087A4000022002A03DBD3F80432002B2EDA204BFC
:1087B4000122C3F80425D3F80024002AFBD04FF08B
:1087C40010221521C2F80012D3F80024002AFBD08D
:1087D4004FF010231522C3F80422154BD3F80024BC
:1087E400002AFBD00022C3F80425D3F80024002A71
:1087F400FBD0BFF34F8F0A490E4BCA6802F4E06204
:108804001343CB60BFF34F8F00BFFDE70A4B0B4A06
:108814001A6008BD0030014000C007400DF0ADBA39
:1088240000ED00E00050004000C000400010004097
:1088340000E001400400FA05B42A00200090D003AF
:1088440038B5074C051E04F1080318BF1C462368FD
:108854002BB11A6822605B6828469847F7E738BD51
:108864001433002020B9054B01225A70FFF7E8BFEA
:10887400012802D1014A9070F8E770470C330020B8
:1088840020B9034B01225A70FFF7DABF704700BFCB
:108894000C33002038B50B4C237883B90A48636045
:1088A400A3602361E36000F08DF8054603F0B2FA9B
:1088B40008B900F093F801232370284638BD8525B4
:1088C400FBE700BF0C3300206988020037B5184C61
:1088D400A378054603F0FF029BB110B14368012061
:1088E400984700230DF107008DF80730FEF736FE98
:1088F400E3689DF807000133E360FEF753FE03B01D
:1089040030BD0DF107008DF80720FEF727FE25B1D5
:10891400226913463BB92A602561E368002BE7D13D
:1089240000F06EF8E4E79D42F7D01B68F2E700BF61
:108934000C33002037B50B4C00230DF107008DF8E4
:108944000730FEF70BFEE368013BE360E56815B909
:1089540000F082F8A5709DF80700FEF723FE03B02F
:1089640030BD00BF0C330020012813B508D0032804
:108974001CD018B9114B0122C3F8802002B010BDDD
:108984000F4C00230DF107008DF80730FEF7E6FDCC
:1089940023780BB9FFF77EFFE3689DF807000133E6
:1089A400E3600123A370FEF7FDFDE7E700F016F88E
:1089B40002B0BDE81040FFF7BDBF00BF00E100E01A
:1089C4000C330020044A137923B9012110609180EB
:1089D400184670478520704720330020074B1A68DB
:1089E400D2075FBFC02283F8002301221A604FF030
:1089F40080430122C3F81825704700BF00E100E05E
:108A040037B54FF080430022C3F80421D3F8042182
:108A14000192019A0222C3F804230D4AD2F8FC0001
:108A240040F08073C2F8FC300A4B1C6844F001012A
:108A340019605D685968491BB1F50A5FFAD31C6077
:108A44004FF08043C2F8FC0001229A6003B030BDAD
:108A540000ED00E0001000E04FF080430122DA60F6
:108A6400D3F81824D203FBD4704700004FF080439E
:108A740007B5D3F800217AB10022C3F80021D3F856
:108A840000210092009A0122C3F808230F4B587961
:108A940010B95A711B6898474FF08043D3F80421EA
:108AA40082B10022C3F80421D3F804210192019A6F
:108AB4000222C3F80823054B1B68012003B05DF8AC
:108AC40004EB184703B05DF804FB00BF203300201B
:108AD40000F1804000F5C040002382B003600368C9
:108AE4000193019B02B07047800000F1A040D0F8D0
:108AF400002722F44032C0F80027D0F8003743EAB8
:108B04000141C0F800177047C208012300F00700B4
:108B140003FA00F08B5C184388547047054B4FF000
:108B2400FF32072843F8202084BFC01880F848206B
:108B3400704700BF2833002038B5144D95F85840CD
:108B44000CBB2022FF2105F1300003F0ADFEE0B2A2
:108B54000134FFF7E3FF0C2CF9D10D4B0022C021A7
:108B64006A6583F80613402119604FF4BE70FFF75D
:108B7400AFFF084B4FF00041C3F80413012385F8FD
:108B84005830104638BD0820FCE700BF28330020C9
:108B940000E100E000600040034B93F85800003807
:108BA40018BF0120704700BF283300202DE9F04191
:108BB400DFF8E48008EB0003054693F93030002B1E
:108BC4000F4664DA8B78C3F34003002B0BBF0824F1
:108BD40000240C2108218C4202D10420BDE8F0813C
:108BE40058F8240001303DD108EB050166B248F87D
:108BF400242081F830601BB908EB040383F8485043
:108C0400BB785A070ED4D9072ED5AB0003F1A04385
:108C1400D3F8002722F00202C3F800271D49284692
:108C2400FFF772FFBB783A7813F0020325D0A40053
:108C340004F1804404F5C0442D02D4F8103523F423
:108C4400473323F44073C4F810351204D4F81035B4
:108C540005F4F85502F4403215431D43C4F8105589
:108C64000020BBE70134B6E77A7805F5E0734FF0EE
:108C7400A041920041F82320D0E7083E48FA86F646
:108C840096F8505045EA821286F85020E8E708200A
:108C9400A4E700BF7C3300202833002038B5204CE3
:108CA400251895F93020072A18DD083A44FA82F489
:108CB40094F850309B09032B0BD14FF0A043D3F809
:108CC4001015C14001F001010231BDE83840FFF741
:108CD4000BBF012B0CBF02210321F6E7D3B2072BF4
:108CE4001DD8930003F1804303F5C043D3F8100566
:108CF40040F00100C3F8100502F1400040B28000CA
:108D040080B2FFF7E5FE51B195F9303054F82330C5
:108D14002BB1012303FA02F2024BC3F8042338BD3A
:108D240028330020006000404FF0A043D3F81035F2
:108D340023FA00F000F00100704700002DE9F04F25
:108D440087B00024584D03944FF48072012102F13E
:108D5400804303F5C04390B21B68012B06D1D5F8BC
:108D640004330B4202D0FFF7B3FE0C430432B2F5D6
:108D7400907F4FEA4101EAD14B4BD3F87C31012B70
:108D84000AD14FF4BE70FFF7A3FE4FF0A04344F0A6
:108D94000044D3F810350393E3B2D3B1434F002515
:108DA4000126344210D0AB0003F1804303F5C043E5
:108DB400D3F81005D3F8101557F8253023B1C1F3B3
:108DC4000141C0F3042098470135082D4FEA4606B7
:108DD400E7D1002C61DA00224FF0FF33CDE9042300
:108DE400DFF8C880DFF8C89000273E464FF0A04B5C
:108DF40019F9014B631C45D0C4F3C2030122E5B247
:108E040004F03F0004F0070402FA04F406AA134431
:108E140013F8042C224235D008EB0002AD0992F974
:108E2400302058F822A0BAF1000F09D1032D29D11E
:108E340004A901930090FFF767FEDDE9000301E058
:108E4400032DF5D000F5E07113F80C3C5BF821100C
:108E54002342C1F3014105D0022913D1032D0CD1C2
:108E6400294604E003290DD1032D06D102210090E7
:108E74000136FFF739FE0098F6B2BAF1000F01D0BF
:108E84002946D0470137042FB2D136B14FF0A04361
:108E9400039AD3F81035934202D107B0BDE8F08F9E
:108EA4000393049B05939DE7006000402833002052
:108EB40078330020014B1B68184700BF843300201F
:108EC40000F1804000F5E040002382B003600368B5
:108ED4000193019B02B07047F0B5524B524CD3F84A
:108EE400043185B0002B3DD094F82E204FF48270CD
:108EF400FFF7E6FF2AB394F82F3013BB494AD2F8A0
:108F04000031002B32D04FF48070FFF7D9FF638B10
:108F140094F82D00834250D921891B1A9BB289B23F
:108F24006383CB1A616801EB4303C2F82C36C2F8A1
:108F340030064FF48270FFF7C3FF3A4B01225A60A8
:108F440014E0636802932389ADF80C30E3680021D0
:108F54008DF8041033BB2374236801A898470023B9
:108F640084F82F3094F82E30002BC7D12D4BD3F832
:108F740010315BB14FF48870FFF7A2FF0023237414
:108F840002238DF8043001A823689847254BD3F8B1
:108F94001431EBB14FF48A70FFF792FF002323746E
:108FA40005B0F0BD208B608363602081E160002AFE
:108FB400D2D11C4B01221A60CEE7BAD1E368012159
:108FC40084F82F1013B100216183AEE76383B0E707
:108FD40066694FF000470125002EE1D0B6FA86F20B
:108FE40027FA02F34632920026EA030602F180438E
:108FF40003F5E0431B68002BEED01046A2F58C72FB
:10900400FFF75EFFD30882F00402C2F380028DF8FA
:1090140008308DF8045023688DF8092001A898477A
:10902400DAE700BF007000408C33002038B51E4BD7
:10903400044693F82C00A8BB1C4A19602178C2F896
:10904400F0156178C2F8F415E5781874012183F8F5
:109054002D00586183F82F0083F82E5083F82C10CC
:109064006FF00043C2F808334FF48270FFF728FF13
:109074004FF48070FFF724FF4FF48A70FFF720FF4E
:10908400A3780B485B01DBB280F8073380230360CD
:109094000223C2F804330DB1C2F80413C2F8001558
:1090A400002038BD0820FCE78C330020007000400D
:1090B40000E100E070B52A4B1A7C02F0FF05002A9B
:1090C4004BD10A79012A9CBF264CC4F8005500F103
:1090D4000C0503EB4504247924B993F82D4001349D
:1090E40083F82D4003EB4503CC790D7A8E781C71FF
:1090F4005D714B7836021B0106F4E06603F0300321
:1091040033430E7806F003063343CE78360306F471
:1091140080563343160406F4E02633434E798979A6
:10912400360506F480160906334301F080710B43BB
:109134000C4901EB0016000100F1804000F5E0400D
:10914400012AC6F81835C0F81455C0F8104502D8DD
:109154000123C1F80035002000E0112070BD00BFDC
:109164008C3300200070004070B5264A264B05461B
:109174001220C2F808031C7C022C03D1C2F8040399
:10918400112070BD187C01281CD1D86818B10223A5
:10919400C2F80433F4E7DD60198393F82E305BB929
:1091A400D2F80031002BFBD04FF48070FFF788FE1B
:1091B400C2F82C56C2F83016124B0222C3F804230C
:1091C4000020DEE7022093F82E40C2F804030126B3
:1091D40000201E745D601981D8603CB1598393F8F6
:1091E4002D30C2F82C56C2F83036CAE7C2F82C56D5
:1091F4004FF48070C2F83016FFF762FE1660204606
:10920400BFE700BF007000408C330020074B197C7F
:109214000129CAB208D193F82E00054B10B11A6087
:10922400002070475A607047082070478C33002034
:1092340000700040024B187C003818BF01207047B2
:109244008C3300200023435082B043580193019B88
:1092540002B07047F0B51C4B44791C4F43F82420EE
:1092640004EB44036600FB5C63BB90F90450037990
:109274008A78002DADBF05F1604CDFF854C003F0CF
:109284000F0E0CF5614C4FEA4212D2B2B4BF0CF887
:109294000E208CF800236D090122DFF838C003F09A
:1092A4001F0302FA03F34CF8253003680888C3F857
:1092B400080534443B1908793A55C97858709970AF
:1092C4000020F0BD0820FCE7C0330020BC330020A0
:1092D40014ED00E000E100E0036801221A60437924
:1092E400024A03EB43030221D1547047BC330020EC
:1092F4002DE9F04105464FF4803400681C4F8C4042
:10930400C0F84843C0F8084395F805C00CEB4C0678
:109314003E4422F07F4296F8018001F5A8764FEA98
:109324004C0E40F82620B8F1000F11D0D0F8048577
:10933400F4446744A8EB0206904538BF06F1FF16D3
:10934400BA7838BF06F57F46B24201DD0D200CE045
:109354003BB15031890089B2FFF774FF2B68C3F821
:1093640004432B680020C3F84443BDE8F08100BFE8
:10937400BC330020024610B500680C464FF48071DF
:10938400FFF760FF13680122C3F844230CB1C3F84C
:10939400042310BD2DE9F041224E234FDFF88C80C9
:1093A40000244FF48035D7F80433A6F580412B42CE
:1093B40089B20CD0336853B1C7F848533846C7F85C
:1093C4000853FFF73FFFD8F80030E0B29847013464
:1093D400042C4FEA450506F10406E4D11248D0F8FE
:1093E4000433DA070AD5D0F800313BB14FF4807169
:1093F400FFF728FF0D4B20461B6898470A48D0F812
:1094040004339B070CD5D0F804314BB14FF482716F
:10941400FFF718FF054BBDE8F0411B68052018470E
:10942400BDE8F0814041024000400240C0330020CA
:109434000023435082B043580193019B02B070470C
:10944400F0B54B4D4B4CD5F8243187B0A3B14FF454
:1094540092712846FFF7ECFFD5F8043163B9A3688D
:10946400C5F808330223A360A368C5F804330123B5
:109474002B626B6107B0F0BDD5F80431002B48D0E6
:109484003D4F3B484FF48271FFF7D2FF0FCF01AE3F
:109494000FC63B68336094F82E307BB1237B012BDD
:1094A4000CBFD5F83C25D5F84C250292022B304B45
:1094B4000CBFD3F83C35D3F84C3503932C484FF408
:1094C400B071FFF7B5FF4FF4AE71FFF7B1FF94F839
:1094D400303013B194F82E303BB1254B0022C3F841
:1094E4000022A260254AC3F80823214AD2F8C434D2
:1094F400C2F8C4349A0736D501238DF8003094F8A5
:1095040030300BB984F82F30D4E9003168469847DD
:10951400B0E717484FF4A471FFF78AFF237B83B9A0
:10952400154F0FCF01AE0FC63B68336094F830304F
:10953400002BDAD1C5F80032A360104BC5F808330C
:10954400D3E74FF40073C5F8003240F20223A3605E
:1095540003F1CE73C5F80833A368C5F804330123B7
:10956400AB602B6286E713F0040318BF0223C4E741
:1095740000300040C4330020D033002002029C019C
:10958400032811D8012A0AD101290FD100F10E02B2
:10959400D2B20D4B00EB40001A5400207047012951
:1095A400F7D0022904D049B1072070470022F8E718
:1095B400054B00EB400018444270EEE7024B00EB11
:1095C400400018448270E8E7F833002008B501220F
:1095D40002210020FFF7D4FF08B1072810D1072289
:1095E40002210120FFF7CCFF08B1072808D1002190
:1095F4000A220846FFF7C4FF10B1072808BF00205D
:1096040008BD00000388102B10B502D0112B1ED00A
:1096140010BD1A4C2168B1B901220846FFF7B0FF0A
:1096240008B1072824D1072202210120FFF7A8FF4F
:1096340008B107281CD1042202210020FFF7A0FF53
:1096440008B1072814D1236801332360E0E70B4AEB
:109654001368013B1360002BDAD1FFF7B7FF002832
:10966400D6D0074B1B68002BD2D0BDE8104018475A
:10967400034B1B68002BE6D09847E4E7083400202E
:109684000434002076DF704777DF70477ADF704755
:109694007CDF70477FDF70478FDF7047B1DF704733
:1096A40041DF7047FDF76ABC0388212B13B50446DC
:1096B40055D007D8112B38D0132B5ED0102B11D0D6
:1096C40002B010BD522B64D0562B01D03B2BF7D1E6
:1096D400364A00231380364AA08813701321FFF7FB
:1096E400D1FF1BE0334B34483449C01AC00800048E
:1096F40040F00300FDF794F94FF0A0434FF400222B
:10970400C3F80825294BA1882D4801221A80284B2B
:1097140000221A702B4B198002F002F90028CFD0D6
:1097240002B0BDE81040FDF729BC224B224826496F
:10973400C01AC008000440F00300FDF771F94FF0AF
:10974400A0434FF40022C3F80C25184A00231380C9
:10975400174A13701B4B4FF6FF721A80B0E70023B1
:1097640080888DF8043001A98DF80530FFF794FF47
:109774000028A5D0FDF702FCA2E70C4A11480023FB
:1097840013800B4A0088137085211A46FFF782FF65
:10979400C4E7064A0B4800231380054A0088137067
:1097A40019461A46FFF77AFFB8E700BF1C340020B9
:1097B4001834002084D00200B4D00200A6D90200DC
:1097C400A8430020C62A0020B0D9020008B50548E5
:1097D400032101F03FFB18B1BDE80840FDF7CEBB03
:1097E40008BD00BF3841002008B9FFF7EFBF70473C
:1097F40008B543686BB1074B07480849C01AC0084D
:10980400000440F00300FDF70BF9BDE80840FCF745
:10981400A5BF08BD84D00200B4D00200BDD90200A7
:1098240008B503784BB9054B3B211888FFF72AFF8D
:1098340018B1BDE80840FDF7A1BB08BDC62A002049
:1098440010B50178044611BBF422134803F02CF838
:109854002169A28A881810F8013C0A2B18D110F843
:10986400023C0D2B16D1023A0B4802F066FF0B4B5B
:109874000B48094A0B49C01AC008000440F0030011
:10988400FDF7D2F8FCF76AFF074B01221A7010BDEE
:109894000D2BECD1013AE7E73A34002084D00200E2
:1098A400B4D00200C3D902001A34002038B530BB4A
:1098B400254A264DD2F8044529680B6803EBD403E6
:1098C40001240B6094600146234621484FF47072D2
:1098D400FFF70EFD08B1FDF751FB1E4A1E481F4B52
:1098E4001F491C70801A2B68C00800041A6840F0D5
:1098F4000300FDF799F8BDE83840FCF72FBF0428B2
:1099040020D1184A1849138801339BB213800A885E
:1099140001320A8015490A6801320A6014490A684A
:1099240001320A60134A12889A420BD8124B1A88E1
:10993400012A07D100221A804FF0A0434FF40022DD
:10994400C3F80C2538BD00BF00400240EC2A0020BB
:1099540018DC020084D00200B4D0020010340020CD
:10996400CDD90200343400203834002014340020CF
:109974000C340020363400201E34002038B5054D48
:10998400044645F001054FF47A40A847013CFAD15A
:1099940038BD00BF10DC0200012970B50C461FD190
:1099A40014281DD10F4B1B78D3B10F4B0F4810490E
:1099B400C01AC0084FF0A045000440F003004FF463
:1099C4000026FDF72DF8C5F808654FF47A70FFF707
:1099D400D5FF084BC5F80C651C70074B00221A60B4
:1099E40070BD00BF2034002084D00200B4D0020037
:1099F400D5D90200193400201434002010B503789E
:109A0400002B46D14368B3F902001B884FF461620E
:109A140013FB02F3002BB8BF03F2FF339C12214B5C
:109A24001C8002F09BFC1BA3D3E9002302F0E6FB9D
:109A34001D4B002202F0E2FB02F0BEFC9FED1B0A6C
:109A440007EE900A87EE800A02F0E0FC184B6FF4F0
:109A54001862BDEEC00A83ED000AA3B2981807EE9F
:109A6400900AF8EEE77A17EE900A02F08BFC0BA34B
:109A7400D3E9002302F0C2FB0022002302F09CFA87
:109A840002F058FC80B264280A4B8ABF6422188012
:109A94001A8010BD6666666666660A40B92106A429
:109AA4006329D33F2E34002000408F40000020461D
:109AB400243400202C3400200D4B4A881B889A4201
:109AC40014D10A8840F677239A420FD18B88094A29
:109AD40009480A49033B9BB21380094A801AC0080B
:109AE40000041A4640F00300FCF7A7BF704700BF0C
:109AF400C62A0020C42A0020B4D00200E2D9020001
:109B040084D00200FDF73ABA38B5124B124C1A68E9
:109B140019681B680025156000F59A420F48241A3D
:109B24005832E4080A6024041B680D4944F0030019
:109B3400FCF783FFFCF712FE0A4A0B4801239360EB
:109B440029464FF47072FFF7D3FB08B1FDF716FAFC
:109B540038BD00BFEC2A0020B4D0020084D002003B
:109B6400FED902000040024018DC02004FF080429F
:109B7400D2F81C351B090D2B07D10023C2F81C3564
:109B8400024B1B681A68024B1A607047EC2A0020CB
:109B9400303400204FF08043D022C3F81C25D3F882
:109BA400542542F00312C3F85425704710B51949DF
:109BB400194886B0FFF73AFA08B1FDF7DFF9174CF8
:109BC40020686168227A6B4603C3694600201A70D4
:109BD400FFF770FA08B1FDF7D1F9114AD4F809007A
:109BE4005168127A03AB03C303A901201A70FFF76B
:109BF40061FA08B1FDF7C2F90A480221FFF7B4FA85
:109C040008B1FDF7BBF9FFF701FB08B1FDF7B6F9A1
:109C140006B010BD019A0200FEDB0200E6DB020082
:109C2400EFDB02002834002008B5FFF703FB68B916
:109C340007480221FFF798FA08B1FDF79FF9FFF7EB
:109C4400E5FA18B1BDE80840FDF798B908BD00BFB2
:109C54002834002010B504462046FEF7E5FA00B982
:109C640010BDFFF71DFDF7E738B51A491A48002261
:109C7400FEF732F908B1FDF781F9184B184C164D6F
:109C84001849E41AE408240444F003042046FCF7C9
:109C9400C7FEFCF763FD6B6813491A682046FCF79E
:109CA400C3FEFCF75BFD6B6810495A682046FCF75D
:109CB400BBFEFCF753FD0E492046FCF7B1FEFCF752
:109CC4004DFD4FF010235B694FF080531A695B69B7
:109CD40038BD00BF60D90200982A002084D0020059
:109CE400B4D0020014DA020033DA020049DA0200C6
:109CF40061DA020037B5002500950446FEF790F9B5
:109D040008B1FDF73BF9204603B0BDE83040FFF74A
:109D1400A1BF10B50446FEF711F908B1FDF72EF9FD
:109D24002046BDE81040FFF795BF10B50446FEF786
:109D340011FA08B1FDF722F92046BDE81040FFF7FB
:109D440089BF000073B50E4D0E4E0446204602F046
:109D540000FE2B88ADF806000DF1060221463046C0
:109D640001F04AFF082806D01328EFD0052802D0B6
:109D740008B1FDF703F9044B00221A7002B070BD5C
:109D8400C62A0020C82A0020213400202DE9F041F1
:109D9400134E144C4FF47B773A4640F2D4750021AD
:109DA400304602F081FD2A460021204602F07CFD67
:109DB4000D48002302224FF45C31FFF7B6FF3B4607
:109DC400324609484FF45C31FFF794FF2B46224694
:109DD4000548BDE8F0414FF46031FFF78BBF00BF89
:109DE400283D002054350020982A00202DE9F04316
:109DF400B54BB64DB649B74FED1AED082D0445F0F5
:109E04000305ADF6744D04462846FCF709FEFCF73D
:109E1400A5FCB1480522214602F071FC60BBAF48A5
:109E2400FFF790FF204602F094FD461FAC493246EE
:109E34002846FCF7F9FDFCF791FC042E18D1A9483B
:109E440002F087FD05340246A649204602F057FC7D
:109E540028B1A5493246204602F051FC40B90123FD
:109E6400A2483B700DF6744DBDE8F043FFF76ABF9E
:109E740000239F483B70F5E73B78002B00F0B98046
:109E84009C480522214602F03AFC0646002868D187
:109E9400DFF8CC82984F9948242342464FF4583136
:109EA400FFF737FF4146D8F804307B60384651F855
:109EB4001C3B40F81C3B042202F03FFC132208F137
:109EC400080107F1080002F038FC8D48FFF73AFF5B
:109ED4008C492846FCF7A4FDFCF740FC204602F020
:109EE40038FD864227D18548002301224FF458319A
:109EF400FFF71BFF804A814824234FF45831FFF7B2
:109F0400F9FE8148FFF71EFF4FF49670FFF736FD08
:109F14004FF0A0434FF40022C3F80C25BFF34F8F3A
:109F24007A497B4BCA6802F4E0621343CB60BFF307
:109F34004F8F00BFFDE7A35D2C2B06F1010540F018
:109F4400628114220021734802F0AEFC721F611D6D
:109F5400704802F0F2FB601902F06DFC40B2386008
:109F6400C1E76D480522214602F0C9FBC0B96B4820
:109F7400FFF7E8FE601D02F05EFC694904462846CE
:109F8400FCF74EFDFCF7EAFB664922462846FCF73F
:109F94004BFDFCF7E3FB2046FFF7B6FD624861E7A3
:109FA40062480522214602F0AAFB30BB6048FFF755
:109FB400C9FE0524FFF738FE0520FFF7DFFC013C4E
:109FC400F8D15C4C5C4922882846FCF72DFDFCF74F
:109FD400C5FB5A492846FCF723FDFCF7BFFB228842
:109FE40057490DF29C4002F075FB0DF29C40FFF7BF
:109FF400A9FE0DF6744DBDE8F083524805222146B2
:10A0040002F07DFB0646002840F0AC804E484F4FDE
:10A01400FFF798FE4E492846FCF702FDFCF79EFB2D
:10A0240036484FF47B732CAA4FF45C31FFF771FE72
:10A034002CAD3446DDF89834A34223DC2F48454D3B
:10A0440040F2D4730DF29C424FF46031FFF761FE8D
:10A054000DF29C44DDF86C3CB34223DC3E4A3F499C
:10A0640000931FA8DDF8983402F034FB1FA8FFF713
:10A0740069FEDDF89824DDF86C3C1343B9D0FFF792
:10A0840085FEB6E73222002105A802F00DFC55F842
:10A09400042B394605A802F01DFB05A8FFF752FE64
:10A0A4000134C7E73222002112A802F0FDFB54F864
:10A0B400042B2946D4F8E43312A802F00BFB12A8AF
:10A0C400FFF740FE0136C5E784D00200B4D0020099
:10A0D40080DA0200183400208CDA020092DA0200DE
:10A0E4009ADA02004C350020A5DA0200AADA02004E
:10A0F400B1DA0200B8DA020030350020982A0020D4
:10A10400BEDA0200C6DA0200D1DA020000ED00E095
:10A114000400FA0538350020D6DA0200DCDA020041
:10A12400E4DA0200F1DA0200FEDA020003DB0200E4
:10A1340009DB02002C34002011DB020022DB0200C8
:10A144002FDB020037DB02003DDB020054DB0200A0
:10A1540045DB02005EDB02006BDB020070DB020009
:10A164001441002029480522214602F0C8FA064677
:10A1740000287FF43EAFDFF8B0902548254FFFF765
:10A18400E1FD254824234A464FF45831FFF7C1FD29
:10A194004946D9F804307B60B84651F81C3B48F86E
:10A1A4001C3B0422404602F0C8FA132209F10801BC
:10A1B40007F1080002F0C1FA204602F0CAFB174971
:10A1C400421F28460392FCF72FFCFCF7C7FA039AB8
:10A1D400042A16D1FE61611D88F80460404602F02D
:10A1E400ACFA0D48334601224FF45831FFF79DFD78
:10A1F400094824233A464FF45831FFF77BFD0848B9
:10A2040030E608482EE62E466BE600BF79DB0200F6
:10A214007FDB020030350020982A00209ADA020001
:10A2240087DB02008EDB020014410020F0B5354DBF
:10A23400354C364885B024232A464FF45831FFF76D
:10A2440068FD2946204651F81C3B6E6840F81C3BCB
:10A254000422666002F071FA132205F1080104F188
:10A26400080002F06AFA012E04F108071DD0284EF6
:10A274004FF030313068E16171683D4603C5308983
:10A28400B17A2880002301222048A9704FF4583164
:10A29400C4E90032FFF749FD1C48242322464FF449
:10A2A4005831FFF727FDFFF771FD1A4D1A4E174875
:10A2B4002A464FF47B734FF45C31FFF72AFD324694
:10A2C400124840F2D4734FF46031FFF722FD134B70
:10A2D40013481449C01AD6F8D0370393D5F8E83395
:10A2E4000293C008104B0004CDE9007340F0030052
:10A2F400D4E90023FCF7B7FB05B0BDE8F040FCF758
:10A304002DBA00BF1441002030350020982A0020C7
:10A3140095DB0200283D00205435002084D0020043
:10A32400B4D00200A0DB02004C35002008B5084977
:10A33400084801F0D5F908B1FCF720FE0548F721DB
:10A3440001F0E2F918B1BDE80840FCF717BE08BDFA
:10A35400BD9A02009043002070B54FF0A0454FF421
:10A364000026C5F808654FF4FA70FFF707FB0324CD
:10A374009620C5F80865FFF701FBC5F80C65962023
:10A38400FFF7FCFA013CF3D170BD38B54FF0A0449F
:10A394004FF40025C4F808554FF47A70FFF7EEFA2D
:10A3A400C4F80C554FF4FA70BDE83840FFF7E6BA2C
:10A3B4002DE9F041ACB0FFF7D9FBFFF7EBFBFEF75B
:10A3C40069FA08B1FCF7DAFD0020FEF77FFAA84B22
:10A3D400A84AD3F81200DB8A0190ADF80830A648E9
:10A3E40040F6FF7301A9ADF80430FEF733FF08B15E
:10A3F400FCF7C4FDA0480121FEF7BCFF9E480123E1
:10A404004FF470720021FEF773FF08B1FCF7B6FD3C
:10A414009948FEF761FF4FF400410020FCF744F92E
:10A4240008B1FCF7ABFDFCF773F8944C944B9549D9
:10A43400E41AE4084FF08043240444F00304D3F8FE
:10A4440000242046FCF7F0FAFCF788F9FCF7ECFF4F
:10A4540008B1FCF793FD8C4840F266620121FCF7D9
:10A4640021FD08B1FCF78AFDFCF772FD08B1FCF789
:10A4740085FD4FF0A0430322C3F84C27C3F83827C7
:10A48400C3F84427C3F84827C3F85C27C3F86C27EC
:10A494004FF080437D4DD3F80024B2F5803F04D1C2
:10A4A40001222A707A4A002111604FF0FF32C3F86A
:10A4B4000024FFF7D9FBFFF7B9FEFDF787FC08B1CD
:10A4C400FCF75CFD01F028FC08B1FCF757FD002304
:10A4D40001A90120019301F0F1FC08B1FCF74EFD44
:10A4E40001A801F03DFD08B1FCF748FD11236948BE
:10A4F4008DF8003002F02DFA664982B26846FFF703
:10A50400C7F808B1FCF73AFD0023ADF80830102372
:10A51400ADF80430ADF8063001A84FF4C873ADF8B7
:10A524000A30FFF7B3F808B1FCF728FDFFF7FEFE89
:10A53400594B5A48019301A901F0E0F908B1FCF71D
:10A544001DFD574B57480093694601F0DBFA08B1EB
:10A55400FCF714FDAC22002101A802F0A5F90223A6
:10A564008DF8043006238DF807300123ADF8503000
:10A574008DF880304FF4C8634B4A23934B484C4BBF
:10A58400159201A92A9300F0E8FB08B1FCF7F6FC48
:10A594004648012100F0DEFB1422002101A802F04C
:10A5A40083F94FF470234FF42032CDE9022364235E
:10A5B4008DF810303F4B069301A83F4B079300F0F2
:10A5C4008BFE08B1FCF7DAFCFFF7F0FA3B492046B2
:10A5D400FCF726FAFCF7C2F8394B93F90020334B09
:10A5E400012093F85410FFF74FF8FFF7EFF82B789A
:10A5F4000BB9FFF7B1FE334B334E254F01221A70CE
:10A60400DFF8D88033782BB10023404633703B60A9
:10A61400FFF7ECFB2D4B1A78012A22D12C4A128821
:10A62400012A1ED000221A700525FFF7FDFA052025
:10A63400FFF7A4F9013DF8D1264D27492A88204681
:10A64400FCF7F2F9FCF78AF82B88052B09D8FFF7F9
:10A654009CFEFFF79AFEFFF798FEFFF796FEFFF7C2
:10A6640094FEFCF77BF80028CCD1FDF7C5FBC7E7C7
:10A67400E6DB0200B198020018DC0200B4D002004C
:10A6840084D00200B6DB0200B82A0020193400206E
:10A694001434002038350020A9960200A843002075
:10A6A40045980200C82A0020C02A00203841002012
:10A6B400ED97020025980200099B0200BDDB020011
:10A6C40030350020203400201A34002010340020BB
:10A6D4001C3400202C34002011DB02003A3400200A
:10A6E4000369C26893429CBF80681B18013B981A97
:10A6F40070472DE9F843D0E902940546A9EB040814
:10A704004068904520440F46144404D902F0A3F84D
:10A71400EC60BDE8F8834246A4EB090402F09BF820
:10A724006868224607EB0801F0E72DE9F843C5689D
:10A734000646894617464FF000083469B3687068C6
:10A74400A54228BFE418013C621B5C1BBC4228BF25
:10A754003C46944228BF144649462844224602F007
:10A764007AF8B3682544AB4208BF00253F1BA044D8
:10A77400A144F560E1D14046BDE8F88310B5114C21
:10A78400114AA2610223C4E90433104BE361A264B9
:10A794004FF400730E4A0F492362E264002310222F
:10A7A400E01DA3626362E362A3656365E3652265FA
:10A7B40002F0ADF80849204602F0A9F82023A3715D
:10A7C40010BD00BFB443002020DC02003C44002044
:10A7D4002C44002029DC02002DDC020070B5164B4D
:10A7E400182400FB04451D4404FB00331646DC6AB0
:10A7F400012C0ED0022C18D0E4B92846FFF770FFC4
:10A80400864204D832462846FFF773FF3446204672
:10A8140070BD2846FFF764FF8642344628BF0446CD
:10A8240022462846FFF765FFF1E72846BDE8704059
:10A83400FFF77BBF0024EAE7B4430020FFF79EBF85
:10A844006DDF704779DF70477DDF704764DF7047E5
:10A854002DE9F04F85B000250E9CBDF83CB0B4F84E
:10A8640000A00191074690461E46A9463A884A45EB
:10A874000DDC45B12388013BA3EB0A039BB2FF2BFC
:10A884003AD806F80A30002005B0BDE8F08F7A689F
:10A8940052F82900039000220DF10B0103A8FFF7E1
:10A8A400D5FF0028F0D19DF80B20424521D1228804
:10A8B400002D14BF0020022002EB08010144594579
:10A8C4001ADC3DB9013292B2019B2280B354228832
:10A8D4000132228022880DF10B01324403A8FFF7D4
:10A8E400B5FF0028D0D121889DF80B200A4422808E
:10A8F400012509F10109B9E70C20C5E72DE9F34168
:10A90400089FBDF824801546CDE90078022204464C
:10A914001E46FFF79DFF50B93346102229462046B4
:10A92400CDE9087802B0BDE8F041FFF791BF02B06D
:10A93400BDE8F0812DE9F04F00231788138090F8CB
:10A944002D3085B006460D4614465BB3082F01D85A
:10A954000C2028E102A8FFF773FF002840F02381B0
:10A964002388DDF809100822EA54238801339BB2B6
:10A974001B222380EA54238801339BB2EA182380E4
:10A98400E950BDF80D30938023889DF808200633E4
:10A994009BB212F0FE0218BF01222380EA542388DE
:10A9A40001332380B378FBB123880433BB42CFD86F
:10A9B40002A8FFF747FF002840F0F5802388032210
:10A9C400EA54238801339BB219222380EA54238852
:10A9D400BDF8082001339BB2E9182380EA54120A17
:10A9E4004A70238802332380F2789AB12388D91CD1
:10A9F400B942ADD80221E954238801339BB2012125
:10AA04002380E95423880B449BB22380EA5423888F
:10AA14000B4423807268AAB12388D91CB94297D801
:10AA2400022192F90020E954238801339BB20A21C0
:10AA34002380E954238801339BB22380EA5423887A
:10AA4400013323803389002B40F0A180338A5BB12A
:10AA5400CDE900472B460722032106F11000FFF73A
:10AA64004DFF002840F09F80338B5BB1CDE9004758
:10AA74002B461522142106F11800FFF73FFF00288A
:10AA840040F09180326A002A40F09080D6F8248009
:10AA9400B8F1000F30D0B8F804302188981C8A1C13
:10AAA4000244BA423FF654AFFE283FF651AF033397
:10AAB4006B54238801339BB2FF222380EA542388FA
:10AAC40001339BB22380B8F80020EA54E918120A33
:10AAD4004A702088023080B22080B8F804205AB12D
:10AAE400D8F8081000296BD0284401F0B4FE23885C
:10AAF400B8F804201344238096F82C30002B40F03F
:10AB04009880307800284ED03388012B58D0228882
:10AB140002F1020CBC453FF61BAF012805D1737846
:10AB2400023313449F42FFF413AF023FBF1ABFB274
:10AB340002A905EB0C00ADF80870FFF785FE90BB89
:10AB44003178BDF80830022900F0B98072789A4251
:10AB540002D39F4280F0B180012940F0B280974235
:10AB640093B2C0F0AE80ADF808300821BDF80830CB
:10AB7400FE2B3FF6EDAE22880133AB54228801321E
:10AB840092B22280A9542288134423800BE0CDE999
:10AB940000472B460622022106F10800FFF7AEFE0D
:10ABA40000283FF453AF05B0BDE8F08FB4F800C0FF
:10ABB4000CF10603BB423FF6CBAE1188052901D840
:10ABC4000720F0E76FF4486E01EB0E039BB24FF2DF
:10ABD4007D3E7345F4D95388052BF1D96FF4486051
:10ABE400181880B27045EBD94FF6FF70814201D03E
:10ABF4009942E5D8052305F80C30238801339BB22C
:10AC040012212380E954238801339BB223801188C5
:10AC1400E954E818090A4170238802339BB223805F
:10AC24005288EA54E918120A4A70238802332380AE
:10AC34002CE7B36A002BC3D04FF000084FF00C0A86
:10AC44004FF0160BB16A5FFA88F20AFB02F201EBCD
:10AC54000209B9F80430981CFE283FF679AE208822
:10AC640003332B54238801339BB2238005F803B0AC
:10AC7400238801339BB223808A5AEA54E918120AC2
:10AC84004A702088023080B22080B9F804205AB17A
:10AC9400D9F80810002993D0284401F0DCFD23885A
:10ACA400B9F804201344238096F82C2008F10108F5
:10ACB4005FFA88F39A42C5D823E7092156E79F42F1
:10ACC400FBD2ADF8087050E770B5C0B14AB1168830
:10ACD4000024B44203D305196D789D4208D0A142E3
:10ACE40001D800200BE0055D01352C44A4B2F0E747
:10ACF400A142F6D9A31C1380005D013880B270BD57
:10AD040013B513460022ADF806200DF106020446E1
:10AD1400FFF7DAFF10B1BDF80630E01802B010BD3D
:10AD240072DF704773DF704738B5012204460D4661
:10AD3400B0F83812D0F83402FFF7E2FF00B1057022
:10AD440004F13C0204F50D7104F15400BDE83840EF
:10AD5400FFF7E6BF80F830107047F8B504460F4699
:10AD6400002973D0002871D091F87A301BB191F882
:10AD74009830002B6CD1D7F8A030042B68D0D7F8CA
:10AD84009C30042B64D04FF0000C84F802C007F10F
:10AD940078060FCE251D0FC50FCE0FC596E8070008
:10ADA40085E8070084F830C0D7F8A4306363D7F887
:10ADB400A830A36304F50D724FF6FF73C4F84AC2BA
:10ADC400A4F84832C4F84422C4F84DC222780AB91F
:10ADD40084F8543094F82430002B14BFEE231F233E
:10ADE40004F15501C4F83412A4F8383204F50E7293
:10ADF4003846FFF79FFD40BB94F82430002B14BF66
:10AE0400EE231F2304F24311C4F83C12A4F8403289
:10AE140004F5107207F13C00FFF78CFDA8B9A36993
:10AE2400A4F848304FF480730125A4F850306369C6
:10AE34002064014684F83C50636404F13C0204F14C
:10AE44005400FFF76DFF00B92570F8BD0E20FCE734
:10AE54000720FAE7F8B5067804460D46002E00F000
:10AE640003810023C0F84A32C0F84D32C388817090
:10AE740000F24A270BB1012903D0E37943B1022D33
:10AE840006D1636BA3B1012284F8512208209847AC
:10AE940004F24B2204F2512112F8013B5BB99142B6
:10AEA400FAD16A1E032A4FD8DFE802F0070D111405
:10AEB40084F85132ECE73346F3E7A2791AB194F8F7
:10AEC400242002B95BB9E2790AB1002B3ED1237A7E
:10AED400002B3DD1637A002B0CBF00250425636B46
:10AEE400A570002B36D0033D012D33D862798AB387
:10AEF40094F8522272BB84F85422012284F853221B
:10AF04000720984704F13C0518220021284601F047
:10AF1400CBFCE26A0123511E994284F83C3098BF6D
:10AF2400D3B284F8513094F8243088BF00261BB182
:10AF3400A6B1A26A84F85220A278042A1ED8DFE8B7
:10AF440002F07A0F25385C000025C8E70225C6E721
:10AF54000325C4E7002384F85332D3E70122E9E749
:10AF6400012384F831300023C4E91073C4F8443257
:10AF7400022384F83C308023A4F84830A378002BC3
:10AF84005DD1636B002B6BD1002068E0002B14BFF4
:10AF94000723032384F83C302369A4F848300023B2
:10AFA4000222C4F84432E36884F8312027646364DD
:10AFB400E4E762696264A269A4F8482013B1062335
:10AFC40084F83C306379B3B194F852329BB994F865
:10AFD400543283B1022384F8503004212046FFF711
:10AFE400A3FE0028CAD1052384F8313004F50D737B
:10AFF400C4F84432C2E70323F6E7E2696264226AD2
:10B00400A4F8482013B1062384F83C30637983B153
:10B0140094F852326BB994F8543253B1022384F841
:10B02400503004212046FFF77FFE0028A6D10623D6
:10B03400DAE70423D8E7002384F831309EE7D4F814
:10B0440044122A4604F15400FFF76AFE38B994F812
:10B05400301094F85400FFF765FE002891D0F8BD35
:10B0640094F8310098478FE70820F8E70388112BFC
:10B0740010B50C460AD0262B1FD0102B05D1C37B4C
:10B08400012B02D18388A1F8483210BD00228388A5
:10B0940081F85222B1F848229A42F6D10B79002B5A
:10B0A400F3D101212046FFF7D5FE0028EDD0A36B94
:10B0B400002BEAD0BDE810401847037A013B012B6E
:10B0C400E3D8897805230131B1FBF3F303EB830360
:10B0D400C91AC9B2E6E7704775DF704776DF704773
:10B0E4007ADF70477BDF7047034B1A8882420CBFBC
:10B0F40018460020704700BF58460020024B9B6949
:10B1040003B11847704700BF3C46002073B585B2B1
:10B114002846FFF7E9FF044638B3174E027A337B1B
:10B124009A420CD200F10A012846FFF7D5FFF0B18C
:10B1340011281AD002B0BDE87040FFF7DFBF00232A
:10B144000372337C43B13B212846FFF7C7FF30F03D
:10B15400080301D0FFF7D2FF736933B100228DF8E1
:10B164000420ADF8065001A8984702B070BD237AB8
:10B1740001332372F9E700BF3C46002037B50B4684
:10B18400497A0F4A79B9D2E901141D7A0246002D91
:10B1940018BF21465868FCF789F978B103B0BDE8B7
:10B1A4003040FFF7ABBF00211972536933B101225C
:10B1B400ADF806008DF8042001A8984703B030BD0F
:10B1C4003C4600204B8802889A4212D842889A4210
:10B1D4000FD380888B8840F2F311884294BF021AFF
:10B1E400421A9A4205D80844984234BF00200120EC
:10B1F40070470020704700000388122B70B5014689
:10B2040059D004D8102B1ED0112B44D070BD502B14
:10B21400FCD12F4BC288DB899A42F7D1038A022BD7
:10B22400F4D186883046FFF75FFF05460028EDD04D
:10B2340001F1120000F063F938BB6868FCF77EF98D
:10B244000028E3D009E0C37B012BDFD14FF6FF7068
:10B25400FFF74AFF054620B90420BDE87040FFF718
:10B264004DBF1C4A8E880680002303721368C0F801
:10B274000A305368C0F80E3010310A30FFF7A2FFCD
:10B28400134B6872DB89002BC0D129463046BDE8D8
:10B294007040FFF773BF8088FFF726FF044600283D
:10B2A400B4D04068FCF74AF908B1FFF727FF4FF61E
:10B2B400FF732380AAE786883046FFF715FF05460B
:10B2C4000028A3D008310A30FFF77CFF6872DCE75E
:10B2D4003C4600206C460020F8B5064648B30546B7
:10B2E4000FCD154F3C460FC495E8070084E80700CE
:10B2F4003068124C3C60B0B1FFF7F2FEC0B932685E
:10B3040013682360536863600D480E4A4FF6FF7359
:10B3140003800D4B40F8043F0021FCF7B5F80028EA
:10B3240018BF032004E02046FFF7DCFE0028EBD022
:10B33400F8BD0E20FCE700BF3C4600206C46002010
:10B344005846002011B102007446002073B50191E3
:10B35400019C06466CB100252C46294601A8FCF741
:10B36400F4F918B106EB440301349D800135142D22
:10B37400F3D13046346002B070BD00002DE9F047CF
:10B3840003888488112B8CB005463DD01A2B42D0FB
:10B39400102B19D1DFF8C080D8F80830DB430093B4
:10B3A400D8F804106846FCF708FA009901A8FFF7DA
:10B3B400CDFF0DF108090027019B9F4207D3132CF1
:10B3C40012D90420FBF7DAFD0CB0BDE8F08739F898
:10B3D40002AB00260136514608EB8600FCF7ABF9B8
:10B3E4001D2EF7D10137E7E716482146FCF79AF9F5
:10B3F40015482146FCF796F9EB7B012BE4D0134862
:10B404002146FCF78FF9DFE70E4821460CB0BDE872
:10B41400F047FCF790B9037A0D481F2B4FEA131538
:10B4240021460AD9FCF77EF9022D0A482146EDD0BF
:10B434000CB0BDE8F047FCF775B9FCF77CF905489A
:10B444002146E3E79C46002098460020A0460020C1
:10B45400A4460020A8460020944600201328014654
:10B4640002D80248FCF771B90020704798460020C2
:10B4740010B50446FFF7F2FF002814BF204614203D
:10B4840010BD70B50546164608460AB90E2070BDB3
:10B4940000231360002DF9D02B68002BF6D0EB8825
:10B4A40013F003040ED1FFF7E3FFC0B214280BD04E
:10B4B4002B7983420AD9EA882B6800FB023030607A
:10B4C4002046E4E70720E2E70520E0E70420DEE782
:10B4D400AADF7047002301380B70042806D8DFE880
:10B4E40000F00306080A0C0011230B707047212397
:10B4F400FBE73123F9E71223F7E72223F5E7008876
:10B5040000F001007047F0B58B7891B00C46012B28
:10B5140038BF012300278DF80E3005460B88607C68
:10B52400ADF80C306946ADF800708DF80270FFF785
:10B53400D1FFA07C0DF10101FFF7CCFF1646237B60
:10B54400E27B217D43EAC203227C43EA02139DF895
:10B554000220B94222F0190203F0190314BF022198
:10B564000121134361F342031C22394609A88DF8D3
:10B57400023001F099F9637B13F0300F14D00DF110
:10B584000901E07CADF808708DF80A70FFF7A2FF9E
:10B5940011238DF808309DF80A30012102AA61F3C5
:10B5A40042038DF80A300E92637B8DF82430A37B1E
:10B5B4008DF825300023CDE90633089303AB0493BB
:10B5C400A388ADF81C30A368CDF814D01BB1E28871
:10B5D400ADF818200893A36973B301A90022ADF84C
:10B5E40004208A701A88ADF82C205A88ADF82E20D1
:10B5F4005A680D91187B0A92FFF76CFFA3690DF14D
:10B604000501587BFFF766FFA3699A7A197A41EA24
:10B61400C201DA7A9B7B41EA02119DF80620002BD5
:10B6240001F0190122F0190214BF0223012311436E
:10B6340063F342018DF80610E36903B10C933346BA
:10B6440004AA09A92846FFF743FF11B0F0BD90DF13
:10B654007047A5DF7047B5DF704700007FB5002352
:10B66400ADF80810ADF80A106A4602A90646ADF80E
:10B674000C30ADF80E300093ADF80430FFF7E7FF5F
:10B68400054600B3114B124CE41AE408FCF71AFC0B
:10B69400240444F0010403460E4932462046FBF7D5
:10B6A400CCF9BDF80020BDF8023052EA030103D002
:10B6B40009492046FBF7C1F9BDF804201AB107492E
:10B6C4002046FBF7B1F9284604B070BD84D00200CF
:10B6D400CCD0020034DC02007EDC0200BDDC0200BF
:10B6E40080B14FF0F7130360FB230371F723C3808A
:10B6F4001723038141F6FB320023016143818281D8
:10B70400184670470E20704730B1A1F11703E02BA3
:10B7140004D80180002070470E207047072070472E
:10B7240013B5034680880C46B8B91A88242A00F059
:10B734009C8014D8112A74D0232A00F0A780102AE0
:10B744003ED0A37A4BB1E1880020FFF782FF0028A6
:10B7540040F0A2804FF48073638102B010BD3A2A96
:10B7640068D0552AEDD1DB88C988A072172B38BF61
:10B7740017238B4228BF0B462381FFF76CFF60B170
:10B78400FCF7A0FB4E4B4F4902464F481B1ADB08FF
:10B794001B0443F00100FBF747F9E27A002AD0D1F9
:10B7A4002369002BCDD040F67721ADF80220228901
:10B7B400ADF80010ADF80420694620469847C0E76C
:10B7C400DB7B0A790A73012B13D0022B14D0E18896
:10B7D40023898B4205D20020FFF73BFF70B9012378
:10B7E400E372217B637B8B42ABD20020FFF736FFF1
:10B7F400A7E70B88E380EAE74B88FBE7112802D12F
:10B804000123A372EDE7FCF75DFB2D4B2F490246A4
:10B814002D481B1ADB081B0443F00100FBF704F955
:10B82400DFE7F723CB8017230B8141F6FB334881F5
:10B834008B8186E75B89CA88934228BF1346172BFE
:10B844000A6938BF17230B8162B1C97A51B140F636
:10B854007721ADF80010ADF80200ADF80430694668
:10B8640020469047002363816BE71A7A0B694A7379
:10B87400002B3FF466AF4DF67A218DF80500ADF844
:10B884000010ADF802008DF8042095E7197A237BA7
:10B89400994228BF1946A9E711283FF45EAFFCF787
:10B8A40011FB074B0949024607481B1ADB081B0416
:10B8B40043F0010002B0BDE81040FBF7B5B800BF8B
:10B8C400CCD0020044DD020084D0020013DD02006B
:10B8D400B0DF704766DF704710B50021044640882A
:10B8E400FFF7F8FF034608B9237210BD112801D1F0
:10B8F4000123F9E76368BDE81040184760B159B106
:10B904000378DE2B0AD00B684360DE2303704FF606
:10B91400FF734380002070470E2070470820704753
:10B9240028B10378DE2B04D14180002070470E201B
:10B93400704708207047F0B5054685B00C460029CD
:10B9440042D0002840D00B78DE2B3DD182884B8832
:10B954009A4204D10B7A13B10846FFF7BDFF2B8836
:10B96400112B33D0512B0FD0012B2DD12B7A012B3E
:10B974002AD1A9886288914226D12046237205B033
:10B98400BDE8F040FFF7A8BFAE886388B3421BD17F
:10B99400AF79022F18D1AD7B2B1F022B14D80021B5
:10B9A4001022684600F080FF052D18BF4FF4C073C5
:10B9B4006946304618BFADF804308DF80070FFF7C3
:10B9C40087FF08B16368984705B0F0BD6388AA880B
:10B9D4009A4204BF4FF6FF736380F5E7A8DF704710
:10B9E400ADDF7047AEDF704762DF704770B5054664
:10B9F4008AB00C4600295ED000285CD00388502B06
:10BA040033D0572B6BD0102B55D181886069002619
:10BA140001AA0196FFF735FD0223218AA888ADF813
:10BA24000A6002AACDF80CD0ADF80830FFF7D8FFB1
:10BA3400002840D1A369002B3DD00398FFF75FFD98
:10BA4400002838D0019E0EB1012333701822002142
:10BA540004A800F029FF02238DF81030AB88ADF85C
:10BA640018300594A369079623E08188606902AAC7
:10BA7400FFF707FD1822002104A800F015FFAB888A
:10BA84002189ADF81830EB88029A059499420792FF
:10BA940018D12E8A022E15D16AB105F11200FFF7D2
:10BAA4002EFD029B48B101221A708DF81060A36923
:10BAB4000BB104A898470AB070BD187003238DF821
:10BAC4001030F4E7A2899A42F5D1A369002BF2D091
